:020000040800F2
:1000000028210020ED010008F5010008653F0008E7
:10001000F9010008FB010008FD01000800000000D4
:10002000000000000000000000000000FF010008C8
:10003000010200080000000003020008258D0008EE
:10004000070200080702000807020008070200086C
:10005000070200080702000807020008070200085C
:10006000070200080702000807020008070200084C
:10007000070200080702000807020008070200083C
:1000800007020008000000007503000807020008CE
:10009000070200080702000807020008070200081C
:1000A000618D0008B58D00080702000807020008EE
:1000B000D18D0008070200080702000807020008A7
:1000C00007020008070200080702000807020008EC
:1000D0000702000807020008999E000807020008AE
:1000E000990D00080702000807020008070200082F
:1000F00007020008070200080702000800000000CD
:1001000000000000070200080000000007020008CD
:1001100007020008000000000702000807020008AC
:1001200007020008790D000807020008070200080E
:10013000070200080000000000000000070200089D
:10014000070200080702000800000000000000008D
:10015000000000000000000000000000000000009F
:10016000000000000000000000000000070200087E
:10017000070200080000000000000000000000006E
:10018000000000000702000800000000000000005E
:10019000000000000000000000000000000000005F
:1001A000000000000000000007020008070200082D
:1001B000070200080702000807020008000000000C
:1001C000000000000702000800000000000000001E
:1001D0000702000807020008DFF80CD000F08CF8D6
:1001E0000048004729A3000828210020064880472E
:1001F00006480047FEE7FEE7FEE7FEE7FEE7FEE70C
:10020000FEE7FEE7FEE7FEE74D8D0008D901000896
:100210002DE9F05F0546002092469B46884606463B
:10022000814640241BE0284641464746224600F0CE
:1002300053F853465A46C01A914110D311461846F6
:10024000224600F03AF82D1A67EB01084F46224685
:100250000120002100F031F817EB00094E41201E6B
:10026000A4F10104DFDC484631462A464346BDE896
:10027000F09F40EA01039B0703D009E008C9121F61
:1002800008C0042AFAD203E011F8013B00F8013B50
:10029000521EF9D27047D2B201E000F8012B491E7C
:1002A000FBD270470022F6E710B513460A46044613
:1002B0001946FFF7F0FF204610BD202A04DB203A44
:1002C00000FA02F1002070479140C2F1200320FAA9
:1002D00003F3194390407047202A04DB203A21FAA7
:1002E00002F00021704721FA02F3D040C2F120024F
:1002F0009140084319467047064C074D06E0E068F8
:1003000040F0010394E8070098471034AC42F6D35C
:10031000FFF766FF64A9000884A9000870B58C186F
:1003200010F8015B15F0070301D110F8013B2A1109
:1003300006D110F8012B03E010F8016B01F8016BF6
:100340005B1EF9D12B0705D40023521E0DD401F8F2
:10035000013BFAE710F8013BCB1A921C03E013F8BB
:10036000015B01F8015B521EF9D5A142D8D30020F0
:1003700070BD000010B540F20044C4F2000400203B
:1003800060622068402140F0010020604FF0A040F2
:10039000016008F073FE20684FF6FE71084020608F
:1003A000606A40F20C71C2F20001088008884CF2C9
:1003B000C102CCF2C002A0FB0202D009488010BDED
:1003C00080B503464FF0000E4069D3F854C003F1E6
:1003D0001C01042283F865E0BDE88040604700000E
:1003E00010B5044690F86500012819D0002818BF00
:1003F00010BDE0694AF2B062C1B2C0F60002515CC1
:10040000C0F307235940515CC0F307435940515C86
:1004100081EA1061515C59B1042084F8620010BD7A
:10042000002084F86500012084F8610010BD00BF41
:1004300000F00F014A1F022AA16603D2012084F8AE
:10044000610010BD09290DD1C0F30B12002AA4F8D8
:100450005C20F3D0B4F85E00824207D9022084F811
:10046000620010BD012084F8620010BD94F86C3069
:10047000D4E90501D4F854C002EB4302E04701205F
:1004800084F8650010BD000010B5044690F8240003
:10049000032807D194F82E000021022884F82410A4
:1004A00007D01FE0A16C00228A7194F82E10022957
:1004B0000AD154F8281F236B54F8140CA288246224
:1004C00098470320A07110BD02280BD16069A36D6D
:1004D00004F120010422A1649847032084F8240039
:1004E00010BD00BFEFF3108072B6636CE3B16069BA
:1004F000D4F858E019689A884FF0030CA36483F885
:1005000006C0F04794F83600022803D094F83E0065
:1005100002280DD104F13000616C2044401A3830BB
:10052000606462B610BD00BF0020A06462B610BD5A
:100530000020606462B610BD2DE9F04F81B0054621
:10054000044655F81C0F002695F845200E80002A19
:1005500078D094F8642084F86160022A00F09E80CC
:10056000012A00F00D81002A40F0B482A16E062914
:1005700000F0CC81052940F00382627F94F86CC0C2
:10058000C0F3C01194F86DB094F86EE002F03F0231
:10059000C0F386398C45884638BFE046934592467D
:1005A0004B4684F86C8038BFDA4684F86DA0F1457C
:1005B00088BF734694F86F70C0F34656BE4284F805
:1005C0006E30009688BF3E468C4584F86F6028BF29
:1005D000934580F0438294F870004AF2B0670001BE
:1005E00040EAC81040EA0A2040EA833040EA465117
:1005F0004A1DD3B2C0F60007FB5CC0F30720584089
:10060000385CC1F307435840385CC1F3036148408C
:100610004AF62811C0F60001085C214642EA007043
:1006200041F8200FEFF3108072B6886A002800F0BE
:10063000098262B694F82400002800F0E7810026C1
:1006400048E200BF94F86200002800F007814AF2F7
:10065000B06280F00901C0F60002515C0302414023
:10066000515C4AF62812C0F60002515C43EA004091
:1006700040EA01700F30214641F8200FEFF310805F
:1006800072B6886A002800F0EF8062B694F8240001
:10069000002804BF022084F82400EEE0A26E092A9C
:1006A00000F07281062A00F07B81052A40F0B481B7
:1006B000617F94F86C80C0F3C01394F86D7094F867
:1006C0006EE001F03F02C0F3863C98459A4638BF81
:1006D000C24697429346E14684F86CA038BFBB46B9
:1006E00084F86DB0F44588BFF14694F86F10C0F3FC
:1006F00046568E4284F86E90009688BF0E46984506
:100700004FF0000384F86F6028BF974280F0EC81BF
:1007100094F87000000140EACA1040EA0B2040EA59
:10072000893040EA46514A1D4AF2B066D7B2C0F657
:100730000006F75DC0F307207840305CC1F307473F
:100740007840305CC1F3036148404AF62811C0F696
:100750000001085C214642EA007041F8200F81F850
:100760004430EFF3108072B6886A002800F0A2814E
:1007700062B694F82400002800F048810026A9E120
:10078000A16E062900F08480052940F0FB80617F7E
:1007900094F86CC0C0F3C01794F86DB094F86EE094
:1007A00001F03F02C0F38638BC45B94638BFE14688
:1007B00093459246434684F86C9038BFDA4684F8F5
:1007C0006DA0F04588BF734694F86F10C0F346568D
:1007D0008E4284F86E30009688BF0E46BC4584F881
:1007E0006F6028BF934580F0558194F87010002009
:1007F00084F86400080140EAC91040EA0A2040EA8F
:10080000833040EA46514A1D4AF2B067D3B2C0F67F
:100810000007FB5CC0F307205840385CC1F3074376
:100820005840385CC1F3036148404AF62811C0F6CD
:100830000001085C214642EA007041F8200FEFF306
:10084000108072B6886A002800F0E88062B694F8DA
:100850002400002800F0DA8000263BE10026304624
:1008600001B0BDE8F08F00BF032084F82400A1642C
:1008700062B66069A36D042298476069216D002605
:1008800084F862608847304601B0BDE8F08F00BF51
:1008900094F8601094F8632001F001018B01C0F31B
:1008A0000F3743EA073302F00F0243EAC11141EA6E
:1008B000022101F136024AF2B066D3B2C0F6000658
:1008C000F35CC1F307215940715CC0F30740484015
:1008D000305C4AF6281180EA1730C0F60001085C47
:1008E000214642EA007041F8200FEFF3108072B603
:1008F000886A002800F0988062B694F824000028E6
:1009000004BF022084F8240097E000BF94F8601030
:1009100094F8632001F001018B01C0F30F3743EA23
:10092000073302F00F0243EAC11141EA02218A1D96
:100930004AF2B066D3B2C0F60006F35CC1F30721F9
:100940005940715CC0F307404840305C4AF62811BA
:1009500080EA1730C0F60001085C214642EA0070C8
:1009600041F8200FEFF3108072B6886A002800F07B
:100970006F8062B694F82400002847D00026A9E0D2
:100980000026A7E00026A5E094F86000B4F85C20FB
:100990000130A66984F8600001200A80207499E083
:1009A00094F86010607F01F0010194F863208B01DE
:1009B00043EA003302F00F0243EAC11141EA022187
:1009C00001F136024AF2B067D3B2C0F60007FB5C11
:1009D000C1F307215940795C81EA1010385C4AF66E
:1009E0002811C0F60001085C214642EA007041F877
:1009F000200FEFF3108072B6886A002860D062B6CC
:100A000094F8240010B1002664E000BF022084F8AE
:100A1000240000265EE000BF00265BE0032084F88F
:100A20002400A16462B650E0032084F82400A1648D
:100A300062B66069A36D04229847022084F86400BE
:100A4000002647E0032084F82400A16462B63CE05D
:100A5000032084F82400A16462B636E0F1453FF635
:100A6000BAAD0099B9423FF6B6AD94F87010C0F334
:100A7000021088427FF4AFAD202000EB431100EB61
:100A80004A10A181B101A4F85E000120E18184F83F
:100A90006400A0E5F0453FF6A8AE009A8A423FF612
:100AA000A4AE94F87010C0F3021088427FF49DAE9B
:100AB000A0E600BF032084F82400A16462B604E02D
:100AC000032084F82400A16462B66069A36D042247
:100AD000984700266069636D29460422984730468E
:100AE00001B0BDE8F08F00BFF4454FF000033FF6C2
:100AF0000FAE009A8A423FF60BAE94F87010C0F326
:100B00000210401AB0FA80F0430901E670B5D2F83D
:100B100000C04AF2B0665FFA8CFEC0F6000616F816
:100B20000E40CCF307256540755DCCF30744654066
:100B3000765DCCF303656E404AF62815C0F60005D5
:100B4000AE5D4CEA06761660EFF3108672B6866CE0
:100B5000C6B162B6F1B10A2926D0092920D1D0F850
:100B600040C0466CDCF80010891A18BF0321002E23
:100B700008BFC0F844C002208CF80600C8B2ACF828
:100B8000043070BD0A291FD0092923D1016C032626
:100B90008E7124E090F8241091B9022180F824107D
:100BA0000021C8B270BD00BF90F82E10012907D1F6
:100BB000022180F82E1083850021C8B270BD00BFCD
:100BC0000321C8B270BD00BF032600F1280180F8E0
:100BD0002E6004E000F12001032680F82460816487
:100BE00062B64169866D084611461A46B047002133
:100BF000C8B270BD0A2A0DD190F82E20012A84BFF8
:100C000000207047826A04320A60012280F82E2098
:100C10001046704790F83620022A0DD390F83E20F7
:100C2000012A84BF002070470122836B00F1380C39
:100C300080F83E2006E000BF036B00F1300C01227B
:100C400080F83620C0F840C0181D08601046704774
:100C500010B590F864C0BCF1020F1CBF022010BD9B
:100C600090F86C4043EA021E8C46012C4CF804EDCF
:100C700002BF4FF6CA648C5202320A2B03D1017CA8
:100C800061B100210174111D1FFA81FE19466246EF
:100C90007346BDE81040FFF739BF00BF012010BD0B
:100CA00010B504464069E16C88474FF0000C60695C
:100CB000636DA4F864C004F11C01042284F860C0D0
:100CC000BDE8104018470000B0B5028811FB01F3E1
:100CD000524311FB313393420ED9448811FB31F357
:100CE00004FB04F083424FEA014509D9002948BFBB
:100CF0006442101A06E000BF0C0CC1EA0440B0BD0B
:100D00000C14D01A03F0CCFA0146002D48BF49421A
:100D1000C1EA0440B0BD0000006840F60401C5F21D
:100D2000000100888A684FF6F07300F500409A438E
:100D300010438860086840F00100086070470000B8
:100D400000EB41000089704780B5014640F2D17048
:100D500006F0E0F940F60000C5F20000016841F03D
:100D60000101016080BD000000EB410300EB810147
:100D700010461A8106F0CEB940F20041C4F20201D9
:100D80000868800658BF704740F2DC502022C2F24B
:100D900000004A60FFF724BB40F21440C4F2010097
:100DA0000168890458BF70474FF40051016009F091
:100DB00067B80000EFF3108072B600BFFEE70000D6
:100DC00010B540F28061C2F20001262210FB02142D
:100DD00094F83810002918BF10BD40F25C61C2F2CF
:100DE000000151F8200007F0A1FB6086A08410BD2F
:100DF000B0B540F280650446C2F20005262014FB1F
:100E0000005140F25860C2F20000002250F8240065
:100E10004A618A610A624A62C1F82A20C1F82E201A
:100E2000C1F83220002104F079FB40F25460C2F294
:100E3000000050F82400002104F070FB40F25C60D8
:100E4000C2F2000050F8240007F09AFB05EB840082
:100E50008068BDE8B04004F01DBD00007047000090
:100E6000F0B581B00022009290F85820012A05D1F7
:100E70004FF0020C604601B0F0BD00BF4269012393
:100E800080F8583012B10D6A012D19D14A68092A2B
:100E90003ED10A688B6A4FF4785606EA524223B173
:100EA000CE6A03F07C0333431A43036844F200051F
:100EB000DE6CC0F210452E401643DE64426627E029
:100EC000846E1CB1436E00220AE000BF8B6A6A1E6A
:100ED00023B103F07C03CE6A1A43324300232C462D
:100EE000D1E9005606F01F06C5F3846505FA06F63B
:100EF0003243661E42EA0302C0E9192608D103689C
:100F000044F20005DE6CC0F210452E403243DA6434
:100F100003689A68120713D4DA6891F8256091F88B
:100F2000265022F44012002E4FEA455602D032439A
:100F300005E000BF91F82450324342EA0552DA60DE
:100F40009A689E68F60846EA9202D20716D18A6A23
:100F5000C2B1CA6AB2B191F82520012A1AD1C26D74
:100F60004FF0010C42F02002C26591F830601A691E
:100F7000012E1AD022F002021FE000BF4FF0000C39
:100F8000D1E000BF91F82560DA68012E03D142F06C
:100F9000007202E0DA6822F000724FF0000CDA60B2
:100FA00091F830601A69012EE4D1D1E90D6522F47F
:100FB000FF7232432A4342F002021A610D6804268E
:100FC00003F1140206EAD55EC5F340668C6852F858
:100FD0002660C5F304550727AF40B4F1004F26EA59
:100FE000070605D142F80E60126842F0004206E0A2
:100FF000AC40344342F80E40126822F000425A617D
:10100000D1E90425DE68042A60D11A6E1A6E0C68D4
:10101000C2F3846694FAA4F52246B5FA85F5C4F3C2
:10102000846E6FF3DF422C46002A08BF7446A64246
:101030004FF6FF74C0F207040CD11A6E22F0004282
:101040001A660D6805EA0402C5F3846E95FAA5F5E3
:10105000B5FA85F55E6E5E6E002AC6F384662F468D
:1010600008BF7746BE420CD15A6E22F000425A6643
:101070000D6805EA0402C5F3846E95FAA5F5B5FA84
:1010800085F59E6E9E6E002AC6F384662F4608BFC5
:101090007746BE420CD19A6E22F000429A660D68E5
:1010A00005EA040295FAA5F4C5F3846EB4FA84F552
:1010B000DC6EDC6E002AC4F3846408BF7546AC4263
:1010C00031D1DA6E22F00042DA662CE0062707EA18
:1010D000960705FA07FE0E6803F1600555F82240F1
:1010E0004FF20007C0F2FF3706F0F8463C404EEAE8
:1010F0000607274347F0004745F822700A698F69C1
:1011000055F8226026F08076374345F822700A6948
:101110000F7F55F82260012F26F0007608BF06F1F8
:10112000007645F822609A68D2074FD10D68CF68E3
:1011300000262A46C4F27F06B7426FF3DF4219D178
:10114000D3F8B07047EA0207C3F8B070D2B195FA8D
:10115000A5F2B2FA82F2013202F01E07092F02F064
:101160001F0218D80127974002EB420247EA0252B9
:101170001DE000BFD3F8B07027EA0202C3F8B02028
:1011800024E000BF012202EB956202F01E070A2F45
:1011900002F01F02E6D301270026974002EB42022D
:1011A000CFF6206606EB02523A4342F00072C2F3D9
:1011B000406603EB86068F687569C2F30452072404
:1011C0009440A54307FA02F22A4372610C68002199
:1011D000C8F208010C4216D040F20831C5F20001F5
:1011E0000D680022CCF22132944205F0E07204D066
:1011F0001027C9F2C007BC420CD1B3F1A04F08BF01
:1012000015F4000322D0002180F85810604601B088
:10121000F0BD00BF0027CCF25277BC4208BF15F0EA
:1012200080774BD0A1F50277BB42ECD00023CCF6FF
:1012300084339C4208BF15F48003E4D10B6823F08B
:10124000E0731A4342F4800242E000BF0B6823F0CF
:10125000E0731A4342F400020A6040F26451C2F2A1
:101260000001096842F663528909C0F23E52A1FBAF
:101270000212910901EB4101182202EB8101009158
:1012800000990029BFD000BF009901390091009951
:101290000029B8D000990139009100990029B2D0F5
:1012A00000990139009100990029ACD000990139C9
:1012B000009100990029E7D1A5E700BFA1F50277C9
:1012C000BB42A0D00B6823F0E0731A4342F0807257
:1012D0000A6098E770B582B090F85820012A03D1CF
:1012E0000221084602B070BD0022019200920268FD
:1012F000B2F1A04F30D140F208324FF6006C4FF6F9
:101300000055C5F20002CFF6FF7CCFF6FF7552F80C
:101310000C40535923435B071ED4D1F800E01368F7
:10132000BEF1000F23F4604422D04B6890F838607F
:10133000234343EA46331360535952F80C60334356
:10134000DB0723D11368896840F61F76B34341EA6F
:101350000E01194317E000BFC16D41F02001C165C6
:101360000121002280F85820084602B070BD00BF5D
:101370001460515952F80C301943C90708D111684B
:1013800040F61F73994311600021EAE70021E8E766
:101390000021E6E7F0B581B00022009290F85820D5
:1013A000012A03D10221084601B0F0BD01230768DC
:1013B00080F85830BB685B0734D4D1E900531F264E
:1013C000C3F3012407EB8404226B03F01F039E4048
:1013D000B243C5F3846606FA03F31A432263BA687C
:1013E000BB68DB0843EA9202D20740F0BC800A687F
:1013F00007F114030426C2F34064D1F808E006EABA
:10140000D25C53F82450C2F304540722A240BEF128
:10141000004F25EA02050BD143F80C501A6842F040
:1014200000430DE0C16D41F02001C165012180E163
:101430000EFA04F22A4343F80C201A6822F0004303
:101440007B61D1E90434FD68042B5FD13A6E3A6EBA
:101450000B68C2F3846293FAA3F6C3F3846C6FF350
:10146000DF43B6FA86F5002B2C464FF6FF7E08BF09
:101470006446A242C0F2070E0CD13A6E22F000423E
:101480003A660A6802EA0E03C2F3846C92FAA2F288
:10149000B2FA82F57A6E7A6E002BC2F384622C4621
:1014A00008BF6446A2420CD17A6E22F000427A66EE
:1014B0000A6802EA0E03C2F3846C92FAA2F2B2FA4C
:1014C00082F5BA6EBA6E002BC2F384622C4608BF56
:1014D0006446A2420CD1BA6E22F00042BA660A6893
:1014E00002EA0E03C2F3846C92FAA2F2B2FA82F517
:1014F000FA6EFA6E002BC2F3846208BF6546AA42F8
:1015000031D1FA6E22F00042FA662CE0062202EA9D
:1015100095020E6807F1600504FA02FC55F82340B5
:101520004FF20002C0F2FF3206F0F846224046EACF
:101530000C06324342F0004245F823200A698B69C9
:1015400055F8226026F08076334345F822300A6948
:101550000B7F55F82260012B26F0007608BF06F1BC
:10156000007645F82260BA68D2074CD10C68CA6888
:1015700000262346C4F27F06B2426FF3DF4319D13F
:10158000D7F8B02042EA0302C7F8B020C3B194FAFA
:10159000A4F2B2FA82F2013202F01E03092B02F029
:1015A0001F0316D801229A4003EB430342EA035378
:1015B0001BE000BFD7F8B0209A43C7F8B02022E064
:1015C000012202EB946202F01E030A2B02F01F03B9
:1015D000E8D3012200269A4003EB4303CFF62066AE
:1015E00006EB03531A4342F00073C3F3406607EB64
:1015F00086068A687569C3F3045307249C40A54393
:101600009A402A4372610C680021C8F208010C421A
:1016100054D040F2083CC5F2000CDCF80030002148
:10162000CCF221318C4203F0E07E04D01021C9F2CB
:10163000C0018C4244D1B7F1A04F4FF0000108BF68
:1016400013F4000275D1DCF8001042F6635221F069
:10165000E07141EA0E0141F40001CCF8001040F2C3
:101660006451C2F200010968C0F23E528909A1FB2F
:101670000212910901EB41010C2202EB8101009160
:10168000009900294CD00099013900910099002956
:101690004AD00099013900910099002946D000995B
:1016A000013900910099002942D000990139009137
:1016B000009900294FF00001E5D13AE0002138E01F
:1016C0000021CCF252718C4208BF13F0807117D008
:1016D000ACF502718F424FF000012AD00022CCF607
:1016E0008432944208BF13F4800222D1DCF8001047
:1016F00021F0E07141EA0E0141F480010CE000BFED
:10170000ACF502718F420DD0DCF8001021F0E071D1
:1017100041EA0E0141F08071CCF80010002108E090
:10172000002106E0002104E0002102E0002100E0A9
:101730000021002280F85820084601B0F0BD0000CA
:10174000B0B582B00446002001904CB1E06D58B1B4
:1017500021688868800012D48868C00019D54CE0E0
:10176000012002B0B0BD00BF204600F00DF90020FE
:10177000206684F85800216888688000ECD5886865
:101780004FF6C072C5F6FF72104088608868C000CE
:1017900033D44FF6C0728868C5F6FF7202F18052EA
:1017A000104000F18050886040F26450C2F20000A6
:1017B000006842F663528009C0F23E52A0FB02026A
:1017C0009009022202EB400001900198A8B100BFED
:1017D000019801380190019878B101980138019081
:1017E000019850B1019801380190019828B10198F1
:1017F0000138019001980028EAD18868C00009D416
:10180000E06D40F01000E065206E40F001002066C1
:10181000012000E000208A68E36DC2F3800203F03B
:101820001003D218E26D05D042F010010120E165ED
:1018300002B0B0BD22F481720232E2658A68D2073A
:101840001AD140F2083C4FF600534FF60062C5F241
:10185000000CCFF6FF73CFF6FF725CF803305CF834
:1018600002201A43D20707D16268DCF8003023F463
:101870007C131A43CCF80020627FE36B43EA4232C8
:10188000D4E902C31A4394F8243042EA0C02012B33
:1018900042EA034207D1D4F828C00023CFF6FE73F2
:1018A00003EB4C431A43E36A33B103F47873D4F87F
:1018B00030C01A4342EA0C02D1F80CC044F20703CC
:1018C000CFF6F07303EA0C031A43CA600A69636B2C
:1018D00022F040621A430A618A688B68DB0843EA97
:1018E0009202D2073FD194F83820237F520042EA77
:1018F000833CCB6844F2020223EA020242EA0C0271
:10190000CA6022690B695AB143F480330B61D1F884
:10191000C0C043F6FF732CEA03031A4308E000BF7C
:1019200023F480320A61D1F8C02043F6FF739A4352
:10193000C1F8C02094F840300A69012B10D140F260
:10194000FD7322EA030CD4E91132D4E913E543EA2A
:101950000C031A4342EA0E022A4342F0010201E05C
:1019600022F001020A6162690B6B012A23F00F0267
:1019700002D1236A013B1A430A63E16D012262F33B
:101980000101E16502B0B0BDF0B597B0044600209A
:101990001690CDE91400CDE9120001A84421FEF70C
:1019A00081FC206840F20011C5F20001884241D05C
:1019B000B0F1A04F40F0A1804FF4004001904FF0F3
:1019C0008050109001A800F003FD002818BFFFF719
:1019D000F1F940F22071C2F200010A6841F24C00B4
:1019E000C4F20200531C0B6042B9016841F400517B
:1019F0000160016801F4005100910099016841F013
:101A000001010160016801F0010100910099016884
:101A100041F002010160006812A900F0020000908C
:101A200000980220129003201390002014904FF091
:101A3000904052E04FF4004001904FF080501090E1
:101A400001A800F0C5FC002818BFFFF7B3F940F269
:101A50002071C2F200010A6840F2004541F24C00D8
:101A6000C4F60005C4F20200531C0B6042B90168C1
:101A700041F400510160016801F4005100910099A6
:101A8000016812AC41F0010101600168032601F018
:101A90000101009100990168002741F004010160F3
:101AA000016801F0040100910099016841F0020110
:101AB00001600068214600F002000090009880203C
:101AC00012904FF090401396149700F02DFA3020AA
:101AD00012A9C1C105F58060214600F025FA4FF436
:101AE00000601290032013900020149040F20040F8
:101AF000C4F6000012A900F017FA17B0F0BD0000FC
:101B0000002804BF0120704710B5044690F821005A
:101B100028B9002084F82000204600F00BF80020AF
:101B200001216062C4E90100C4E90300606184F836
:101B3000211010BD81B041F24801C4F202010068D9
:101B4000A1F58962904201D001B07047086840F069
:101B500008000860086800F008000090009801B0D4
:101B6000704700002DE9F04381B004464079012818
:101B70004FF0020000F0E78088460121617120717A
:101B8000D8F808001646042845D100F0C1FA0746E7
:101B9000CEB100BF2068406BB0F1FF3F20DC00F009
:101BA000B7FAC01B0228F5D3206940F00800206175
:101BB0000320207101B0BDE8F08300BF00F0A8FA57
:101BC000C01B0228F0D22068406B0004F6D401202C
:101BD00000F096F9D8F824102068016407E000BFEF
:101BE000012000F08DF9D8F8241020684164816C40
:101BF00006F0100240F2FF3393409943D8E90A37C8
:101C0000934019438164C16CFF239340994307FAC1
:101C100002F21143C164D8F81C10206801290DD1CB
:101C2000816B06F010061F22D8F82030B240914395
:101C300003FA06F21143816302E000BF06F01006CA
:101C4000D0F83CC0D8F818200721012A01FA06FE76
:101C500004D0022A06D14FF0010909E04FF0000933
:101C600006E000BFD8F81420B2FA82F24FEA521907
:101C7000D8F80830D8F8147098F804004FF40071C0
:101C800043EA09034FF4807501FA06F298F805104B
:101C90001F4301286FF4404005FA06F508BF47F4DA
:101CA000807780EA0E00012908BF47F40077A84337
:101CB000D8F800109043022900EA0C050AD100F080
:101CC00051FE46F60101C0F68911884204D345F45D
:101CD000004509E00D4307E04BF20041C0F2C4416A
:101CE000884288BF45F4804507FA06F021682843FA
:101CF000C8634FF480400A68B04022EA00000860E0
:101D0000086840F6FE72B2409043D8E9032302FA15
:101D100006F738430860C0200F68B04027EA00008B
:101D20000860C2F3830003F03C0240EA82100A6EAE
:101D300040F60F73B3409A43B04010430866012049
:101D400020710020607101B0BDE8F083002804BF5D
:101D50000120704710B50446007920B90020607159
:101D6000204600F007F802202071002001212061A8
:101D7000217110BD80B586B0006840F60002C5F242
:101D80000002002190420591049101D006B080BD6F
:101D900041F24C00C4F20200026842F48032026058
:101DA000026802F480320092009A026842F0010256
:101DB0000260006800F0010000900098102001907F
:101DC0000320CDE9020101A94FF0904000F0ACF8EA
:101DD00006B080BD00284FF0010100F08E802DE993
:101DE000F04740F2000CC4F2020C03684FF6F832E0
:101DF0000CF5816ECBF6FD72734538BF02F580623B
:101E00004CF6CD441A44CCF6CC44A2FB04286FF027
:101E1000070252FA83F2A2FB04290CF580656FF0E9
:101E20000304D0E90262D0F810A03CBF0025C4F240
:101E3000020504EA9804C0E91054022580F82550F0
:101E40001D6847F6F07725EA070737433A434769A5
:101E500042EA0A0285693A43C7692A43056A3A4356
:101E60002A431A600CF50262734538BF0CF5006214
:101E7000A3180CF50862C264C9F3041240F6840C7E
:101E800001FA02F2B6F5804FC4F2020C83640265D7
:101E900006D1002141601960CCF800201EE000BF8F
:101EA00041685FFA81FE013903294FF00001C3F850
:101EB00000E0CCF8002011D8AEF101020CEB820753
:101EC00047F87C1F02F01F01012202FA01F30CF116
:101ED000BC023946CCF8C03002E000BF002200232B
:101EE00000F1540C8CE80E0000210122C16380F83F
:101EF000252080F82410BDE8F04708467047000010
:101F0000B0B5044600F004F9054640F20000C2F204
:101F100000004068611C18BF044400BF00F0F8F8DE
:101F2000401BA042FAD3B0BD2DE9F04F84B00C683D
:101F30000190002C00F0E280019841F2004600F18F
:101F40003842C4F600068E464FEAB2270621B04258
:101F500008BF0521052F4FF000054FF001074FF096
:101F600000064FF0000838BF4FEAB2210091CDF8CB
:101F700008E00DE0DEF8004008F1010834FA07F14E
:101F800006F1020607F1010705F1040500F0B6802D
:101F9000A7F1010A012000FA0AF214EA0209E9D0C5
:101FA000DEF804C00CF0030BABF10104012C17D8D0
:101FB0000198744681680323E468B3409943B440B0
:101FC0002143816041684FEA480E9143CCF30012EF
:101FD00002FA0AF20446D843114361600CE000BFE4
:101FE0000321B140019CC843BBF1030FB64603D1A6
:101FF000B6464FF0030B23E0E168029B01409A686C
:10200000BBF1020F02FA0EF241EA0201E16017D1C0
:102010006FF0030101EA5A01214405F01C040F226C
:10202000D1F820C002FA04FB1A692CEA0B0CA2407A
:1020300042EA0C02019C0A62D3F804C00CF0030BC4
:1020400021680BFA0EF2014011432160DDF808E02F
:102050001CF4403F8ED041F26000C4F202000168DF
:1020600040F2004C41F0010101600168C4F2010C32
:1020700001F00101039103992AF003014FF6084A88
:102080006144CFF6FF7A05F00C030F2051F80A20C7
:1020900000FA03F40098A24300FA03F31A4341F84C
:1020A0000A20DCF80810DEF8042041EA090340F2B7
:1020B0000C40D40258BF21EA0903CCF80830C4F21E
:1020C00001000168940241EA090358BF21EA0903AB
:1020D0000360DCF80410940341EA090358BF21EAC5
:1020E0000903CCF80430DCF80010D20341EA0903FC
:1020F00058BF21EA0903CCF800303BE704B0BDE843
:10210000F08F00001823002A08BF2823C150704711
:1021100041F62450C2F200000068704740F200000F
:1021200041F62451C2F20000C2F2000140680A6880
:10213000104408607047000080B5032000F090F85C
:10214000042000F009F800281CBF012080BD00F029
:102150002BF8002080BD000070B540F20006C2F2EE
:1021600000067168E1B1044640F26450C2F200001A
:102170004FF47A720068B2FBF1F1B0FBF1F000F0BD
:10218000BBFE0F2C4FF0010508D838B94FF0FF30D7
:1021900021460022002500F037F83460284670BD43
:1021A0000125284670BD000080B582B041F258007C
:1021B000C4F20200816841F001018160816801F090
:1021C000010101910199016841F0805101600068AD
:1021D00000F0805000900098042000F041F802B018
:1021E000BDE8804000F0EAB8002848BF704700F022
:1021F0001F01012202FA01F14EF200124009CEF253
:10220000000242F82010704710B54EF60C5CCEF27A
:10221000000CDCF80030C3F3022E8EF00704042C0F
:1022200028BF0424BEF103034FF0FF3E0EFA04F46E
:1022300038BF0023A14399400EFA03F39A4300F0FC
:102240000F03043B1143634409010C3300F1604266
:10225000B0F1FF3FC8BF02F56443197010BD000024
:102260004EF60C51CEF200010A684FF6FF031A40F9
:1022700060F30A2242F0806040F0FD700860704711
:10228000B0F5007F48D0002840F08A8047F2140063
:10229000C4F2000050F8141CC26E01F4C06122F4B4
:1022A0008072B1F5806FC26633D150F8141C0122E0
:1022B00062F34A2140F8141C40F26451C2F200015A
:1022C0000968322251434DF68362C4F21B32A1FBEE
:1022D0000212910C02684B1C18BF12F4806213D0DA
:1022E0000268002918BF12F480620DD0026801292B
:1022F00018BF12F4806207D00268022904D012F4D9
:102300008062A1F10401E5D10068400544BF0320CB
:1023100070470020704700BF47F21400C4F200006D
:1023200050F8141CC26E01F4C06142F48072B1F521
:10233000806FC266EDD150F8141C012262F34A216D
:1023400040F8141C40F26451C2F2000109683222C4
:1023500051434DF68362C4F21B32A1FB0212910C71
:1023600002684B1C18BF12F4806213D00268002967
:1023700018BF12F480620DD00268012918BF12F450
:10238000806207D00268022904D012F48062A1F1B1
:102390000401E5D10068400544BF03207047B8E759
:1023A00047F21400C4F2000050F8141C022262F339
:1023B0004A2140F8141C00207047000047F2080032
:1023C000C4F20000016841F48041016070470000E0
:1023D0002DE9F04182B00446807841F2880600077A
:1023E000C4F2020602D400202FE000BF56F8300CE1
:1023F00010F080580BD156F8300C40F0805046F861
:10240000300C56F8300C00F080500190019847F2E3
:102410000007C4F20007386840F480703860FFF7A6
:1024200077FE05463868C00500F1D680FFF770FEDC
:10243000401B0228F6D90320B8F1000F05D156F849
:10244000301C21F0805146F8301C2168CA0713D196
:102450008A0719D44A071FD40A0725D48A062BD421
:102460004A0631D40A0637D4CA053DD48A0543D476
:102470004A0549D457E000BF3268636822F003027E
:102480001A4332608A07E5D53268A36822F00C024D
:102490001A4332604A07DFD53268E36822F030021F
:1024A0001A4332600A07D9D53268236922F0C00284
:1024B0001A4332608A06D3D53268636922F44062D7
:1024C0001A4332604A06CDD53268A36922F44052DD
:1024D0001A4332600A06C7D53268E36922F44042E3
:1024E0001A433260CA05C1D53268236A22F44032E9
:1024F0001A4332608A05BBD53268636A22F44022EF
:102500001A4332604A050ED53268A36A22F440129B
:102510001A43B3F5801F326005D156F87C2C42F483
:10252000801246F87C2C0A050ED53268E36A22F444
:1025300040021A43B3F5800F326005D156F87C2C67
:1025400042F4801246F87C2CCA040ED53268236B04
:1025500022F040721A43B3F1807F326005D156F801
:102560007C2C42F4801246F87C2C8A040ED532680A
:10257000636B22F040621A43B3F1006F326005D101
:1025800056F87C2C42F4801246F87C2C4A040ED576
:102590003268A36B22F040621A43B3F1006F3260DD
:1025A00005D156F87C2C42F4801246F87C2C0904A4
:1025B0000ED53168E26B21F040511143B2F1805FDA
:1025C000316005D156F87C1C41F4803146F87C1C02
:1025D00002B0BDE8F08100BFB06810F4407010D0C8
:1025E000216C88420BD0B068B16820F4407041F48F
:1025F0008031B160B16821F48031B160B060C00752
:102600000CD1B068216C20F440700843B060002009
:10261000B8F1000F7FF419AF11E700BFFFF778FDA5
:10262000054641F2883700BFB0688007E9D4FFF75C
:102630006FFD401BB842F7D9FDE600002DE9F047D9
:1026400000286DD042F2000AC4F2020A0446DAF809
:1026500000000D4600F00F0088420CD2DAF80000AE
:1026600020F00F002843CAF80000DAF8000000F05C
:102670000F00A84254D1216841F20808C807C4F2EB
:10268000020803D1880740F1D880BDE060680228C5
:102690003AD0032840D158F8082C920140D5D8F8F8
:1026A0000420D8F8043042F2004702F00302C3F3DA
:1026B0000313C0F2F4070133032A04BF43F2006797
:1026C000C0F26E17D8F80420B7FBF3F3D8F8047003
:1026D000C2F306225A43C7F34163022707EB4303C1
:1026E000B2FBF3F24BF20043C0F2C4439A4261D909
:1026F000D8F8002012F0F00F51D089075AD5A16800
:10270000002957D14BE000BF58F8081C89035CBF73
:102710000120BDE8F08707E058F8081C490503D4FC
:102720000120BDE8F08700BFD8F8001001F00C01CF
:1027300004293FD0D8F8001001F00C01082939D045
:10274000D8F8001001F00C010C2933D1D8F804108E
:10275000D8F8042042F2004301F00301C2F303124F
:10276000C0F2F4030132032904BF43F20063C0F254
:102770006E13D8F80410B3FBF2F2D8F80430C1F3AA
:1027800006215143C3F34162022303EB4202B1FB32
:10279000F2F14BF20042C0F2C44291420AD9D8F899
:1027A0000010082262F307114FF00109C8F8001069
:1027B00002E000BF4FF00009D8F8001021F003013B
:1027C0000843C8F80000FFF7A3FC064641F288372B
:1027D000D8F80000616800F00C00B0EB810F07D062
:1027E000FFF796FC801BB842F2D90320BDE8F087C2
:1027F0002168880708D4B9F1000F1ED0D8F800006E
:1028000020F0F00017E000BF480705D5D8F8000019
:1028100040F4E060C8F80000080706D5D8F80000CA
:10282000072262F30D20C8F80000D8F80000A26863
:1028300020F0F0001043C8F80000DAF8000000F0C3
:102840000F00A8421BD9DAF8000020F00F0028433F
:10285000CAF80000FFF75CFC064641F2883700BF6B
:10286000DAF8000000F00F00A84207D0FFF750FC94
:10287000801BB842F4D90320BDE8F08721684807DF
:1028800007D5D8F80000E26820F4E0601043C8F8EB
:102890000000080708D5D8F80000216920F460502E
:1028A00040EAC100C8F80000D8F8000042F2004138
:1028B000C0F2F40100F00C00042808462DD0D8F82E
:1028C000000000F00C00082843F20060C0F26E1017
:1028D00023D0D8F8002002F00C020C2A1CD1D8F822
:1028E0000420D8F8043002F00302C3F303130133C9
:1028F000032A08BF0146D8F80400B1FBF3F1D8F869
:102900000420C0F306204843C2F34161022202EBD7
:102910004101B0FBF1F000E00020D8F800104AF2CD
:102920009262C1F30311C0F60002515C40F264529E
:1029300001F01F0120FA01F140F20000C2F2000094
:102940000068C2F200021160BDE8F047FFF704BC66
:1029500041F20000C4F20200016841F4002101606C
:102960007047000040F26450C2F2000000687047F7
:1029700040F2645041F20801C2F20000C4F20201C8
:10298000006809684AF2A262C1F30221C0F600029F
:10299000515C01F01F01C8407047000040F26450D4
:1029A00041F20801C2F20000C4F2020100680968A5
:1029B0004AF2A262C1F3C221C0F60002515C01F0EA
:1029C0001F01C8407047000041F20C01C4F202012F
:1029D00051F8040C42F20042C0F2F40200F00C0084
:1029E0000428104608BF704751F8040C00F00C0092
:1029F000082843F20060C0F26E1021D051F8043C68
:102A000003F00C030C2B1CBF00207047D1F800C052
:102A10000B680CF0030CC3F303130133BCF1030F79
:102A200008BF02460868B2FBF3F20968C0F306204B
:102A30005043C1F34161022202EB4101B0FBF1F0CE
:102A4000704700002DE9F04182B0002800F00681B7
:102A50000446007841F20006C007C4F2020655D1D0
:102A60002078800774D42078000700F197802078C0
:102A7000400700F1B7802078800600F10781E06907
:102A8000002840D0B16801F00C010C2940F05681BB
:102A9000012800F0E380F068216A00F003028A4216
:102AA00040F0DC80626A6FF00F0300F0F00103EB8E
:102AB0000212914240F0D280A16A00F4FE42B2EBD1
:102AC000012F40F0CB80E16A00F07842B2EBC16F99
:102AD00040F0C480226B0023CFF6E07303EB025278
:102AE00000F4C0016FF31402914240F0B780616BB3
:102AF0004FF07E4202EB016100F0C06001F07E41C8
:102B0000884240F0AB800020F1E100BFB06800F0E7
:102B10000C01F06808295BD0032281F00C0122EA45
:102B200000000844B0FA80F0400951D16068B0F567
:102B3000803F07D0B0F5A02F40F0D680306840F439
:102B400080203060306840F480303060D7E000BFD3
:102B5000B068F16800F00C00042869D001F00301AE
:102B600080F00C0081F002010844B0FA80F04009C6
:102B70005ED1E1683068002900F0CE8040F48070BA
:102B80003060FFF7C5FA05463068400500F1EC807B
:102B9000FFF7BEFA401B0228F6D920E16169D6F89A
:102BA0009400002900F08C8040F00100C6F89400E9
:102BB000FFF7AEFA054600BFD6F8940080073FF550
:102BC00056AFFFF7A5FA401B0228F5D907E100BF71
:102BD000306880037FF544AF606800287FF440AF21
:102BE0003CE000BFB06D10F0805808D1B06D40F0EF
:102BF0008050B065B06D00F080500190019847F2B0
:102C00000007C4F200073868C0052BD4386840F4C8
:102C100080703860FFF77CFA054600BF3868C00551
:102C200020D4FFF775FA401B0228F7D9D7E000BF80
:102C30003068400501D5E06880B17068216920F0F6
:102C4000FE4040EA0160706040F20000C2F2000005
:102C50000068FFF781FA00283FF405AF012002B0B9
:102C6000BDE8F081A068012808D0052840F09A80CE
:102C7000D6F8900040F00400C6F89000D6F8900016
:102C800040F00100C6F890009AE000BFA169D6F8B4
:102C90009800002970D040F00100C6F89800FFF7B6
:102CA00037FA0546D6F8980080073FF5E8AEFFF7FB
:102CB0002FFA401B02284FF00300F3D917E100BFA1
:102CC00020F00100C6F89400FFF722FA054600BF85
:102CD000D6F8940080077FF5CAAEFFF719FA401BBB
:102CE0000228F5D97BE000BF3168002821F480314B
:102CF0003160316821F48021316000F08F80FFF76E
:102D000007FA0546306880033FF5AAAEFFF700FAE0
:102D1000401B6428F6D962E020F480703060FFF731
:102D2000F7F90546306840057FF59DAEFFF7F0F9ED
:102D3000401B02284FF00300F4D9D8E03168022884
:102D400021F0807131604FD1FFF7E2F9054600BFF5
:102D50003068800140F18E80FFF7DAF9401B0228CD
:102D60004FF00300F4D9C2E07068216920F0FE4002
:102D700040EA0160706076E620F00100C6F8980035
:102D8000FFF7C6F9054600BFD6F8980080077FF523
:102D900076AEFFF7BDF9401B02284FF00300F3D9D0
:102DA000A5E000BFD6F89010002821F00101C6F878
:102DB0009010D6F8901021F00401C6F890103DD084
:102DC000FFF7A6F9054641F2883700BFD6F8900014
:102DD000800745D4FFF79CF9401BB842F6D9032081
:102DE00002B0BDE8F08100BFF0684FF6FF7120F03F
:102DF0000300F060F068CFF6EE610840F060FFF786
:102E000087F90446306880017FF57DAEFFF780F9D1
:102E1000001B02284FF00300F4D968E0FFF778F9AF
:102E2000054600BF306880037FF51AAEFFF770F9E2
:102E3000401B64284FF00300F4D958E0FFF768F90D
:102E4000054641F2883700BFD6F89000800707D5C5
:102E5000FFF75EF9401BB8424FF00300F4D946E09B
:102E6000B8F1000F7FF407AEB06D20F08050B06570
:102E700001E600BFF06848F20C01C0F29F1104F1B6
:102E8000200700EA010C8ECF6FF00F00D4E90C543C
:102E900000EB02100022CFF6E07241EA0C0102EBD7
:102EA000055208436FF314024FF07E4540EA0320B9
:102EB00005EB0465104305F07E4540EAC7602843F2
:102EC000F060306840F080703060F06840F08070F2
:102ED000F060FFF71DF90446306880013FF513AE3E
:102EE000FFF716F9001B02284FF00300F4D902B0D7
:102EF000BDE8F08170470000411E0020B0EB116F6B
:102F00001CBF012070474EF21002CEF20002516049
:102F10004EF62351CEF20001F0230B700721906092
:102F200011607047FFF7E6BF704700007047000070
:102F300070470000F0B590F83C20012A04BF022041
:102F4000F0BDD1E90232D1E900CE22F47C5223F463
:102F500070531A4348F2FF73CFF6F07303EA0E037F
:102F600042EA030E0A692CF477234EEA030C22F49A
:102F700076224B6942EA0C021A430B6B22F4742C42
:102F800023F470238A6943EA0C0343EA024302688C
:102F900043F2004EC4F2010E42F6004C7245C4F2F8
:102FA000010C01D0624503D1CC6923F08053234347
:102FB000724501D0624517D101F12006002770CE7D
:102FC000CFF6F04723F07C7307EA0656334324F02C
:102FD00000742343724543EA050301D0624503D1DF
:102FE000C96A23F000530B430021536480F83C105E
:102FF0000846F0BD70B590F83C30012B04BF0220AC
:1030000070BD13685D1E0F2D1AD84FF0090C4FF0DC
:10301000000E4FF400730124DFE805F02D08121CA8
:1030200012121226121212121212123A4FF00A0C37
:103030004FF0010E4FF48063022402291DD130E0CD
:10304000002400234FF0000E4FF0000C022914D191
:1030500027E000BF4FF00B0C4FF0020E4FF400635F
:103060000424022909D11CE04FF00C0C4FF0030E90
:103070004FF480530824022913D0012902D101689A
:10308000603110E00121002280F83C20084670BD2C
:103090004FF00D0C4FF0040E4FF400531024022992
:1030A000EBD1016864310D68D2E90162A54306FAEB
:1030B0000EF626402E4302FA0CF29E431A4032438B
:1030C0000A600021002280F83C20084670BD000004
:1030D00070470000704700007047000070B590F81E
:1030E0003C20012A4FF0020247D080F83D200268C0
:1030F00043F2004C54689368C4F2010C42F6004E4F
:103100006245C4F2010E01D0724503D14D6824F42A
:1031100070042C434FF68F75CFF6FF550E682C4088
:1031200042F6FF35C4F201053443AA4254600FDC75
:10313000B2F1804F16D040F20046C4F20006B2420F
:1031400010D040F60006C4F20006B2420AD00EE0EB
:10315000724507D044F20006C4F20106B24201D023
:10316000624504D1896823F08003194391600121ED
:10317000002280F83D1080F83C20104670BD000011
:1031800070470000002804BF0120704710B50446B6
:1031900090F83D0028B9002084F83C00204600F05B
:1031A00023F8022084F83D002068211D05F016FE5A
:1031B000012084F8480084F83E0084F83F0084F839
:1031C000400084F8410084F8420084F8430084F809
:1031D000440084F8450084F8460084F8470084F8E9
:1031E0003D00002010BD000080B586B00068B0F141
:1031F000804F37D040F20041C4F20001884249D0EC
:1032000042F60041C4F20101884250D141F2580017
:10321000C4F20200816841F400618160816801F4B8
:1032200000610191019950F80C1C41F0010140F836
:103230000C1C50F80C0C01A900F001000190019841
:103240004FF40060019012200290012003900020B2
:1032500004900C2005904FF09040FEF765FE06B0FC
:1032600080BD00BF41F25800C4F202000168002294
:1032700041F0010101600068032100F001000190AC
:1032800001981C20FEF7C0FF1C20FEF7ADFF06B022
:1032900080BD00BF41F25800C4F20200016841F055
:1032A00002010160006800F002000190019806B080
:1032B00080BD000090F83D1001291CBF012070471F
:1032C000022180F83D10016842F6FF32C868C4F25E
:1032D0000102914240F00100C8600FDCB1F1804F63
:1032E0001ED040F20040C4F20000814218D040F6E7
:1032F0000000C4F20000814212D025E042F60040F6
:10330000C4F2010081420BD044F20000C4F201007B
:10331000814205D043F20040C4F20100814213D142
:1033200088680722C0F201020240062A4FF000001E
:103330000FD0B2F5803F08BF7047086840F0010029
:1033400008600020704700BF086840F00100086076
:103350000020704780B590F83C20012A4FF002020F
:1033600000F0A98080F83D20D0F800C08822DCF869
:103370000830CFF6CE721A40CCF808200B686F2BBD
:1033800010DD1F22C0F21002934237DCB3F5005F5C
:1033900046DA702B00F09280B3F5805F00F08480F5
:1033A000D6E000BF2F2B35DD4F2B3FDC302B6FD00D
:1033B000402B40F0CD80D1F804E0C968DCF8203023
:1033C000DCF8202022F00102CCF82020DCF81820C4
:1033D00022F0F00242EA011123F00A0242EA0E0250
:1033E000CCF81810CCF82020DCF808104FF68872C2
:1033F000CFF6CF721140473154E000BF3F21C0F2F9
:1034000010018B423ADC2021C0F210018B423FD0E8
:10341000302139E0E3B3102B3AD0202B38D097E09D
:1034200060D0B3F1101F33D092E000BF502B6DD0AD
:10343000602B40F08D80D1F804E0C968DCF82030C2
:1034400023F01003CCF82030DCF81830DCF8202012
:1034500023F4704322F0A00243EA013142EA0E1243
:10346000CCF81810CCF82020DCF808104FF6887241
:10347000CFF6CF721140673114E000BF4021C0F297
:1034800010018B4204D07021C0F210018B425FD139
:10349000DCF808104FF68872CFF6CF72114019434E
:1034A00041F00701CCF808100022012180F83D10FE
:1034B000002180F83C10104680BD00BFD1E901E337
:1034C000C968DCF8082043EA0E0322F47F4243EA8D
:1034D00001211143CCF80810DCF8081041F0770105
:1034E000E0E700BFD1E901E3C968DCF8082043EA5E
:1034F0000E0322F47F4243EA01211143CCF8081065
:10350000DCF8081041F48041CCE700BFD1F804E0BA
:10351000C968DCF82030DCF8202022F00102CCF869
:103520002020DCF8182022F0F00242EA011123F0FA
:103530000A0242EA0E02CCF81810CCF82020DCF87F
:1035400008104FF68872CFF6CF7211405731A9E7B5
:103550000122AAE77047000010B501680446086917
:10356000800744BFC8685FEA807061D4086940077B
:1035700044BFC8685FEA407066D40869000744BF6A
:10358000C8685FEA00706DD40869C00644BFC868A7
:103590005FEAC06072D40869C0071CBFC8685FEAF0
:1035A000C07079D10869000644BFC8685FEA00604E
:1035B0007AD40869C00544BFC8685FEA006000F1BA
:1035C0007B800869400644BFC8685FEA406000F13C
:1035D0007B800869800644BFC8685FEA806000F1AC
:1035E0007B800869C00244BFC8685FEAC02000F160
:1035F0007B800869800244BFC8685FEA802000F1D0
:103600007B800869400244BFC8685FEA402000F13F
:103610007B800869000246BFC8685FEA002010BDD1
:103620006FF4000220460A61BDE81040FFF7A8BD14
:103630006FF00200086101202077886980076BD055
:103640002046FFF787FF6DE06FF00400086102205D
:103650002077886910F4407F68D02046FFF77AFF12
:103660006AE000BF6FF00800086104202077C86995
:10367000800765D02046FFF76DFF67E06FF0100010
:10368000086108202077C86910F4407F62D0204686
:10369000FFF760FF64E000BF6FF0010008612046A3
:1036A00000F07CFA21687DE76FF080000861204619
:1036B000FFF73CFC21687CE76FF4807008612046CE
:1036C000FFF732FC21687CE76FF04000086120467C
:1036D00000F0B8FA21687CE76FF02000086120460E
:1036E000FFF726FC21687CE76FF480100861204614
:1036F000FFF7F0FC21687CE76FF4001008612046BA
:10370000FFF7E6FC21687CE76FF480000861204643
:10371000FFF7E2FC21687CE7204600F025F8204610
:1037200000F03AFA2168002020771FE7204600F0D9
:103730001BF8204600F030FA2168002020771CE7B3
:10374000204600F011F8204600F026FA21680020FB
:10375000207719E7204600F007F8204600F01CFA11
:1037600021680020207716E7704700002DE9F0411E
:1037700090F83C30012B04BF0220BDE8F0814FEAF5
:10378000B202052A00F28481DFE812F00600500040
:10379000A200F40046018A0103681A6AA3F1804678
:1037A00022F001021A621D6A1A465C6852F818CFAC
:1037B0008F68A6F59636D1F800E025F002054FEAAD
:1037C000B626072E45EA07050AD80127B74017F0A5
:1037D000E50F1FBFCF6825F00C0527F004073D4318
:1037E000072E0BD8012707FA06F616F0E50F1FBFC4
:1037F00024F44074D1E9056734433C434FF68C769A
:10380000CFF6FE760CEA060747EA0E075C609F617A
:103810004F6809695F631D629F6947F008079F61F0
:103820009F6927F004079F6177E100BF036843F2B7
:1038300000461A6AC4F2010622F010021A621D6ADA
:103840001A465C6852F818EFB3428E68D1F800C08F
:1038500025F0200545EA061505D042F60046C4F2DB
:103860000106B34207D1CE686FF0400725F0C005CE
:1038700007EA06163543A3F18046A6F596364FEAC9
:10388000B626072E0DD8012707FA06F616F0E50F23
:103890001FBF24F44064D1E9056744EA860444EA82
:1038A000870448F6FF46CFF6FF660EEA060747EAAA
:1038B0000C275C609F614F6809699F631D629F6967
:1038C00047F400679F619F6927F480679F6123E148
:1038D000036843F200461A6AC4F2010622F48072B9
:1038E0001A621D6A1A465C6852F81CCFB3428E6891
:1038F000D1F800E025F4007545EA062505D042F62A
:103900000046C4F20106B34207D1CE6840F2FF4739
:10391000360225F44065BE433543A3F18046A6F543
:1039200096364FEAB626072E0DD8012707FA06F677
:1039300016F0E50F1FBF24F44054D1E9056744EAAF
:10394000061444EA07144FF68C76CFF6FE760CEA9E
:10395000060747EA0E075C60DF614F680969DF63AD
:103960001D62DF6947F00807DF61DF6927F00407A0
:10397000DF61D2E0036843F200461A6AC4F201062E
:1039800022F480521A621D6A1A465C6852F81CCFF3
:10399000B3428E68D1F800E025F4005545EA0635BB
:1039A00005D042F60046C4F20106B34207D1CE6804
:1039B00044F6FF77360325F44045BE433543A3F173
:1039C0008046A6F596364FEAB626072E0DD8012773
:1039D00007FA06F616F0E50F1FBF24F44044D1E9BC
:1039E000056744EA861444EA871448F6FF46CFF692
:1039F000FF660CEA060747EA0E275C60DF614F6846
:103A000009691F641D62DF6947F40067DF61DF69D0
:103A100027F48067DF617FE003681A6AA3F18047BB
:103A200022F480321A621A46A7F59637D3F820801E
:103A30005D6852F850EFD1F800C08E684FEAB727A2
:103A4000072F09D80124BC4014F0E50F1EBF4C69B4
:103A500025F4803545EA042528F4003444EA064478
:103A60004FF68C76CFF6FE7603360EEA060747EA67
:103A70000C075D601F654F6809699F641C621F6DBC
:103A800047F008071F651F6D27F004071F6544E016
:103A90000121002280F83C200846BDE8F08100BFEB
:103AA00003681A6AA3F1804722F480121A621A4648
:103AB000A7F59637D3F820805D6852F850EFD1F81B
:103AC00000C08E684FEAB727072F09D80124BC40F1
:103AD00014F0E50F1EBF4C6925F4802545EA8425C6
:103AE00028F4001444EA065448F6FF46CFF6FF6671
:103AF00006F540760EEA060747EA0C275D601F656B
:103B00004F680969DF641C621F6D47F400671F6519
:103B10001F6D27F480671F65090213681943116040
:103B20000021002280F83C200846BDE8F08100001A
:103B3000002804BF0120704710B5044690F83D00EE
:103B400028B9002084F83C00204600F023F8022029
:103B500084F83D002068211D05F040F9012084F81B
:103B6000480084F83E0084F83F0084F8400084F860
:103B7000410084F8420084F8430084F8440084F84B
:103B8000450084F8460084F8470084F83D00002092
:103B900010BD0000704700007047000010B541F6EE
:103BA000F831C2F20001884218BF10BD00F004FFD6
:103BB000062813D140F22474C2F2000422784FF098
:103BC00090402021002A18BF0122FEF79BFA20789E
:103BD000B0FA80F04009207010BD00BF4FF0904057
:103BE00020210022BDE81040FEF78CBAB0B5044693
:103BF00090F83C0001284FF0020008BFB0BD01253D
:103C000084F83C5084F83D00206805F06DF90028E8
:103C10004FF0010006D0002184F83D5084F83C109C
:103C2000B0BD00BF2068C16821F04001C160C1681B
:103C300021F48041C1600020002184F83D5084F8C7
:103C40003C10B0BD7047000090F88010012904BFFF
:103C5000022070472421C0F884100268116813689C
:103C600023F00103136021F000530021416613602B
:103C70002022C0F8842080F8801008467047000099
:103C8000B0B590F88020012A04BF0220B0BD2422E4
:103C9000C0F884200268D0F864E0D2F800C013684D
:103CA000BEF1000F23F001031360936823F06063FB
:103CB00041EA0301916019D0936891684AF6481E61
:103CC000490FC0F6000E4AF650151EF80140C0F626
:103CD0000005695CC3F34263E400B4FBF1F11EF834
:103CE0000340EB5CE500B5FBF3F301E001210123A8
:103CF000A0F86A102021A0F86830C2F800C0C0F80F
:103D00008410002180F880100846B0BDB0B590F84E
:103D10008020012A04BF0220B0BD2422C0F88420E4
:103D20000268D0F864E0D2F800C01368BEF1000F5A
:103D300023F001031360936823F0604341EA030119
:103D4000916019D0936891684AF6481E490FC0F6F1
:103D5000000E4AF650151EF80140C0F60005695CD9
:103D6000C3F34263E400B4FBF1F11EF80340EB5CE3
:103D7000E500B5FBF3F301E001210123A0F86A108F
:103D80002021A0F86830C2F800C0C0F884100021DB
:103D900080F880100846B0BDB0B582B0B0B104461E
:103DA000D0F8840028B9002084F88000204600F074
:103DB00059F82420C4F884002068016821F001012A
:103DC0000160204605F0F2FC012803D1012002B079
:103DD000B0BD00BFA06A10B1204605F073FC20689A
:103DE000416821F490414160816821F02A0181609D
:103DF000016841F0010101600020C4F88C00FEF769
:103E000087F9216805460A6812070CD56FF07E4CC9
:103E100020464FF4001100222B46CDF800C005F0DB
:103E20001DFE78B92168086840070FD56FF07E4CF9
:103E300020464FF4800100222B46CDF800C005F04B
:103E40000DFE18B1032002B0B0BD00BF2020C4F8A1
:103E50008400C4F888000020E06684F8800002B086
:103E6000B0BD00002DE9F04198B0044602A800263C
:103E7000043040211796CDE91566CDE91366FCF7AD
:103E800011FA206844F20041C4F20001884203D0D4
:103E900018B0BDE8F08100BF022502A80295049683
:103EA000FEF796FA002818BFFCF784FF41F258008D
:103EB000C4F20200016841F24C0641F40031016095
:103EC0000068C4F2020600F40030019001983068E6
:103ED000002740F001003060306813A900F00100B5
:103EE000019001980C20CDE91305072017904FF0A1
:103EF0009040CDE91577FEF717F841F6EC25A6F5C9
:103F00004360C2F200051A214FF0800885E8830063
:103F10002846C5E90378C5E90577C5E90777FDF7C0
:103F200059FF002818BFFCF745FFE567AC6241F672
:103F30004C35A6F61C40C2F200051B21102285E874
:103F400087012846C5E90577C5E90777FDF742FFF0
:103F5000002818BFFCF72EFFA567AC6218B0BDE8BB
:103F6000F081000005F078F8FEE7000010B5D0E918
:103F70000014084604F060FB206110BD10B5044633
:103F8000807F012818BF10BD207B012816D0032890
:103F90002AD0022824D1D4E90001002281F824206B
:103FA000002104F071FB2068B4F91010E28A04F0DB
:103FB000EFFAA8B10220A07710BD00BFD4E900013C
:103FC000002281F82420012104F05EFB2068B4F96E
:103FD0000E10E28A04F0DCFA10B10220A07710BDC6
:103FE0000320A07710BD00BF6068012180F8241075
:103FF000D4F8121001610220A07710BD0123C18105
:1040000040F201110373C282C1837047022301820F
:1040100001210373C282C1837047000010B50446BA
:1040200000F070F80B281CBF002010BD204600F0E7
:104030001FF800284FF0000018BF10BDA083022019
:104040002076012010BD0000438B0B4323EA0202BF
:10405000838B4283194381837047000080B50068D9
:1040600004F0F6FABDE8804004F01EBAC07F704745
:10407000408B7047818B408B41EA004070470000C5
:104080004068006870470000406840687047000062
:10409000017B032910D0022912D001291EBF012063
:1040A00000B27047B0F90E104FF0FF30B1F1FF3F92
:1040B000C8BF0120704700BFB0F9121002E000BF76
:1040C000B0F910104FF0FF30B1F1FF3FC8BF012031
:1040D00000B270474068C0687047000040680069DF
:1040E00070470000C08A7047B0F90E0070470000AA
:1040F000B0F9100070470000006804F0A1BA000099
:10410000808B7047407E70474068B0F91E00704752
:104110004068D0F81A0070474068D0F81600704721
:1041200080E80E0000210173C0F80E10C0F81610D0
:10413000C0F81A10817770470A0C032341820121CD
:1041400003738282C183704710B50446FFF7DAFF1C
:1041500038B92046FFF7D4FF18B92046FFF788FF8B
:1041600010B1002010BD00BF01202076A07710BD47
:10417000B0B50446FFF7C6FF4FF0010510B10C289B
:1041800018BF00252046FFF7BBFF38B92046FFF7D0
:104190006FFF002818BF0120284301D00020B0BDC8
:1041A000052020760120B0BD006804F073BA00003D
:1041B0004BF21A61CFF6FF7111FB00F1021444F6C5
:1041C000E61302FB131102FB1311CA0BB1F1404FAE
:1041D000BCBF48F20002CFF6FF72B1F1804FA8BF1A
:1041E00047F6FF7291B2B1F5004F04BF48F20102E9
:1041F000CFF6FF72C0EA02407047000010B50446D7
:10420000084600F061F810FB04F12214031403FBCC
:104210001211CA0BB1F1404FBCBF48F20002CFF6F9
:10422000FF72B1F1804FA8BF47F6FF7291B2B1F5AE
:10423000004F10FB14F110FB24104FEAD03104BFE3
:1042400048F20102CFF6FF72B0F1404FBCBF48F216
:104250000001CFF6FF71B0F1804FA8BF47F6FF71A4
:1042600088B2B0F5004F04BF48F20101CFF6FF71EC
:10427000C2EA014010BD000010B50446084600F037
:1042800023F821B2021410FB14F302FB113110FBCE
:1042900004F210FB34204900C1EAE03010BD0000F8
:1042A0000128BCBF00207047EFF3108172B640F6C2
:1042B0000041C4F2020140F269120A604860886855
:1042C00062B6C00B7047000040F6004100F1FE40AE
:1042D000C4F202014FF0601200F57F000A604860EE
:1042E000886870472DE9F047B1F800808146B8F141
:1042F000000F19D0D9F80000C08980453ED88878D1
:1043000099F81E3089F82100C87889F823000A79C5
:1043100089F825204A7917189F4289F8272023D940
:104320000A252846BDE8F087B9F81820002589F845
:1043300029506AB1D9F8141099F82A30D9F8000038
:104340008B52B9F818204768023292B20923B84755
:104350002846A9F8185089F82A5089F81F5089F87A
:104360002250BDE8F08700BFC24201F1060709D123
:104370004FF0000A0AF1060040452FD909252846CA
:10438000BDE8F087002600244FF0000A16E000BFC9
:10439000284602F0AFFED9F80C1001348855D9F840
:1043A0000C0099F82310805D99F827205044E6B25C
:1043B00011440237B1421FFA80FADBD9D9F8040060
:1043C0003D8800EB8601284602F0A4FE99F8230000
:1043D000E1B28142DCD20220DDE700BFA8EB0A0097
:1043E0000238A9F81A003878002589F8290018B190
:1043F0002846BDE8F08700BFB9F8182089F8295091
:104400006AB1D9F8141099F82A30D9F800008B5203
:10441000B9F818204768023292B20923B84700253C
:10442000A9F8185089F82A5089F81F5089F82250A5
:104430002846BDE8F08700002DE9F04F81B08246A4
:10444000C07F9AF82210884266D1554635F8182F59
:104450000020002AE87144D1514651F8140B09227A
:1044600003689847D8B340F21C71C2F20001DAF831
:10447000140009689AF82A2001609AF8290004219A
:10448000AAF8181090424FF000018AF8201026D0A8
:104490008AF82A009AF821009AF823208AF8220044
:1044A0009AF825009AF827308AF82600BAF81A00F8
:1044B0008AF82420AAF81C00DAE901101A449200B4
:1044C0008AF82830FBF7D5FE9AF823209AF827308F
:1044D000DAF80C10DAF810001A44FBF7CAFE2A8842
:1044E000EAB1BAF81C00824200F2B7809AF8249030
:1044F000DAF81480B9F1000F5DD0DAF808E0A9F11C
:10450000010008EB0203032809F0030C0AD200267D
:10451000BCF1000F32D14EE001308AF81F0001B02B
:10452000BDE8F08F09F0FC0BAEF11007002000266B
:1045300057F8102F083812887C6823F816202A882C
:10454000B96802322A80228803EB460462802A88F6
:10455000043602322A800988FA68A1802988B34586
:1045600001F1020129801188E180298801F102020C
:104570002A80DDD11B1ABCF1000F1CD05EF826008A
:10458000BCF1010F00881880288800F102022A80FF
:1045900011D00EEB86004168BCF1020F09885980EA
:1045A000298801F102022A8005D08068008898805D
:1045B0002888821C2A809AF82600FD284DD89AF86F
:1045C0002010814246D19AF82800002100288AF85C
:1045D000201042D000EB090CDAF80860DAF810007D
:1045E000494600BF56F8297094B23F6848F80470F5
:1045F00010F809703A444F1CFFB2BC452A802CD9F0
:1046000056F8274093B2246848F80340C35D1A4423
:104610008B1CDFB2BC452A801FD956F8273094B2D4
:104620001B6848F80430C35D1A44CB1CDFB2BC459C
:104630002A8012D956F8273094B21B68043148F802
:104640000430C35D5FFA81F91A44CC452A80C9D889
:1046500003E000BF481C8AF82000BAF81C0091B2A1
:1046600081427FF65CAF9AF82600FE283CD19AF88A
:104670002800C8B39AF82460DAF808E0DAE90437C9
:1046800000EB060C344600BF5EF8260091B20068CD
:104690007850985D0244601CC6B2B4452A8023D984
:1046A0005EF8260091B200687850985D0244A01C24
:1046B000C6B2B4452A8017D95EF8260091B20068C8
:1046C0007850985D0244E01CC6B2B4452A800BD9EC
:1046D0005EF8260091B2006804347850985DE6B226
:1046E0000244B4452A80CFD8DAF814109AF82A3058
:1046F00092B28B52DAF80000BAF8182047680232FA
:1047000092B20923B8470020AAF8180001B0BDE80A
:10471000F08F0000F0B581B0028B002A4ED0044625
:1047200090F82600FE283BD194F82800C0B394F8F6
:104730002450D4F808E000EB050CD4E904302946F5
:104740005EF8256097B23668C6515D5D2A444D1CFF
:10475000EDB2AC45228323D95EF8256097B2366866
:10476000C6515D5D2A448D1CEDB2AC45228317D93C
:104770005EF8256097B23668C6515D5D2A44CD1C4F
:10478000EDB2AC4522830BD95EF8256097B236684E
:104790000431C6515D5D2A44CDB2AC452283CFD8E9
:1047A000616994F82A3092B28B522068228B476854
:1047B000023292B20923B8470020208301B0F0BD35
:1047C0002DE9F04182B04168044631F8027B00686F
:1047D00027F0FF06002527F00702B6F5807F08BF07
:1047E000C2F3C405A38918BF164680894FF0000E96
:1047F000A3F102082346A0F1010C23F80EEF602E6E
:104800004FF00200A4F80C80616000F28180013F4B
:1048100041F6441E07F00707C2F2000E0EEB4717E1
:10482000DFE816F07A00C100C100C100C100C1007C
:10483000C100C1008200C100C100C100C100C100AF
:10484000C100C1008800C100C100C100C100C10099
:10485000C100C1008E00C100C100C100C100C10083
:10486000C100C1009400C100C100C100C100C1006D
:10487000C100C1009A00C100C100C100C100C10057
:10488000C100C100A400C100C100C100C100C1003D
:10489000C100C100AE00C100C100C100C100C10023
:1048A000C100C100C100C100C100C100C100C10000
:1048B000C100C100B400C100C100C100C100C100FD
:1048C000C100C1006200C100C100C100C100C1003F
:1048D000C100C1006200C100C100C100C100C1002F
:1048E000C100C100620000BF012D0FD841F63C108D
:1048F000C2F2000050F82550002D4DD0A7681FFAD5
:1049000088F00FFA8CF20097A8474CE00D204AE09F
:10491000B6F5807F47D1E7E70420E081A068012158
:10492000017000203FE000BF1FFA8CF1204603F029
:104930002FF938E01FFA8CF1204602F0A1FC32E09A
:104940003846FFF701FC80F001002CE03846FFF705
:104950000FFC002027E000BF3846FFF7D3FB0628F6
:1049600004BF3846FFF720FC00201CE03846FFF764
:10497000C9FB98B13846FFF7FBFB002013E000BFEE
:104980003846FFF74BFB00200DE000BF3846FFF72D
:10499000EDFA002007E000BF0D2004E03846FFF7E5
:1049A000D3FB80F00100A168E2898854E0890130DE
:1049B000E08102B0BDE8F08141F62050C2F2000073
:1049C0000068FFF79FBB00000A4641F62051C2F283
:1049D00000010968034608461946FFF70FBB0000AF
:1049E00080B540F28060C2F200000078002808BF65
:1049F00080BD00F005F8BDE8804004F0E7BD000090
:104A0000B0B540F28065C2F20005287801280FD1C8
:104A1000688878B101386880A88810B1A888013802
:104A2000A880E888002808BFB0BDE8880138E88081
:104A3000B0BD00BF04F0F4FB40F21814C2F2000451
:104A4000206804F10C0182689047606080B12146C3
:104A500051F8080B0A220368984748B12046FFF72F
:104A6000AFFE2068A168D0F804C0E2890A23E047BD
:104A700001206880A8880028D0D1D2E741F62050D4
:104A8000C2F200000068FFF75FBB000041F6205053
:104A9000C2F200000068FFF76BBB0000002808BFEF
:104AA00070472DE9F04381B040F280678046C2F242
:104AB00000070020387040F2340140F2C420C2F2F6
:104AC0000001C2F20000C7E9020101F07FF940F2E3
:104AD000DC50C2F20000FCF7E3F805F06BFD40F299
:104AE0008415C2F20005284600F010FD40F204468D
:104AF000C2F20006304604F03BF840F25C64C2F2B9
:104B0000000420682946324603F0A8FD40F2A4556F
:104B1000C2F20005284605F067FB2168BE6840F236
:104B2000783040F2F033C2F20000C2F200032A46AD
:104B3000009603F0D9FB40F25810C2F2000000F0DA
:104B4000E5FC40F22C10C2F2000000F0DFFC40F265
:104B50000C06C2F20006304603F098FC40F25060AA
:104B6000C2F20000006807F11405C0E9435640F2A4
:104B70006850C2F2000000F093FC40F26030C2F2D4
:104B80000000386102F0A8FA0020FCF731F9206833
:104B90004FF0010987F8389003F04EFD21687862E4
:104BA000084603F049FD41F64416000C2168BB6835
:104BB000C2F20006388530462A46FFF7B1FA20686F
:104BC00003F042FD014630460022FFF717FA40F29B
:104BD0001070C2F20000C8F80060FCF7B5F887F862
:104BE000009001B0BDE8F04370470000F0B5B0F8A8
:104BF000002184462CF812100846BCF800110CF174
:104C0000200EACF8021101318AB27F2A88BF002140
:104C1000ACF80011002300213CF903400CEB030227
:104C20002144B2F90240B2F90450B2F906602144BD
:104C3000B2F9087029443144B2F90A403944B2F952
:104C40000C502144B2F90E402944B2F910502144CD
:104C5000B2F912402944B2F914502144B2F9164075
:104C60002944B2F918502144B2F91A402944B2F942
:104C70001C5021440EEB030434F9024C29443EF944
:104C800003502144B2F922402944B2F9245021446E
:104C9000B2F926402944B2F928502144B2F92A40F9
:104CA0002944B2F92C502144B2F92E402944B2F9DA
:104CB00030502144B2F932402944B2F934502144F1
:104CC000B2F936402944B2F938502144B2F93A4099
:104CD0002944B2F93C502144B2F93E2029444033E2
:104CE000B3F5807F114497D1CA1701EB5261C9090E
:104CF000ACF80411F0BD000080B54FF48271FBF7F1
:104D0000D1FA80BDB0F904017047000010B592B02F
:104D1000002468463C211194CDE90F44FBF7C2FA08
:104D200041F6D810C2F200004FF0A0414FF400420B
:104D300001234FF0040CC0E90014C0E90242C0E9AD
:104D40000443C0F818C08483036280F8244080F8CC
:104D50003840C46380F84040FCF7F2FC002818BFDC
:104D6000FCF728F841F6D810C2F200000FA90F9402
:104D7000FCF7B0FA002818BFFCF71CF80420C0F6B6
:104D80006000009009200190012002907F20039094
:104D9000042004900020022105900891ADF8240021
:104DA0008DF8260080218DF8300041F6D810CDE92D
:104DB0000A11C2F200006946FCF752F8002818BF39
:104DC000FBF7F8FF44F20000C3F6C020009040F269
:104DD0000F10019041F6D810C2F200006946FCF7AE
:104DE0003FF8002818BFFBF7E5FF12B010BD000028
:104DF000F0B597B008A83C21FBF754FA41F64420DF
:104E000040F200110024C2F20000C5F200014FF48C
:104E10000042012604250227CDE90644CDE90444D9
:104E2000CDE90244CDE90044C0E90014C0E90242E2
:104E3000C0E9044685618483076280F82440C0E9A4
:104E40000B4480F83840C46380F84040FCF778FC9D
:104E5000002818BFFBF7AEFF44F20000C3F6C020E5
:104E600008900920CDE909067F20CDE90B058020B7
:104E7000CDE9120041F64420C2F2000008A90D94C9
:104E80001097ADF844408DF846408DF85040FBF740
:104E9000E7FF002818BFFBF78DFF1020C1F2C0000C
:104EA000089040F20F10099041F64420C2F2000031
:104EB00008A9FBF7D5FF002818BFFBF77BFF40F6DA
:104EC0000000C2F6306000900620019004207F218F
:104ED0000290CDE903100020059041F64420C2F273
:104EE00000006946FCF756FA002818BFFBF762FF7E
:104EF0002020C1F2F04000900C20019041F64420A7
:104F0000C2F200006946FCF745FA002818BFFBF71B
:104F100051FF17B0F0BD000080B541F6B02040F65B
:104F20000041C2F20000C4F202010160FCF7E8FD9A
:104F3000002808BF80BDBDE88040FBF73BBF0000F4
:104F400080B58CB068463021FBF7ACF941F6D8202B
:104F500040F60001C2F20000C5F200010160FCF75A
:104F6000F5FE002818BFFBF725FF02200021009066
:104F7000CDE90210CDE904100120CDE9060141F68A
:104F8000D820ADF80410C2F2000069460022FCF7F8
:104F9000E9FD002818BFFBF70DFF0CB080BD000035
:104FA00082B041F24800C4F20200016841F00401FD
:104FB0000160016801F0040101910199016841F06B
:104FC00002010160006800F002000090009802B049
:104FD000704700002DE9F04186B0002641F24C00F8
:104FE000CDE90466C4F202000168002241F0040128
:104FF00001600168202701F0040100910099016817
:1050000041F020010160016801F020010091009948
:10501000016841F001010160016801F001010091A6
:105020000099016841F0020101600068202100F050
:105030000200009000984FF09040FDF763F840F2B6
:105040000044C4F6000420464FF4604100224FF4AF
:105050006048FDF757F84FF4005001904FF40410EA
:1050600001ADCDE9020604F580602946FCF75CFF3E
:10507000019701274FF090402946CDE9027604962A
:10508000FCF752FF0220CDE9030020462946CDE976
:105090000187FCF749FF06B0BDE8F08180B5FDF758
:1050A00061FC44F6D351C1F26201A0FB0101C809C1
:1050B000FDF722FF40F20000C2F2000001684FF04D
:1050C000FF300022FDF7A0F841F62050C2F20000A8
:1050D000FFF7E4FCBDE8804005F0D8B970B5A4B096
:1050E00042F60046002468463421C4F20106CDE9A8
:1050F0001D44CDE91B44CDE91944CDE91744CDE960
:105100001544CDE91344CDE91144CDE90F44CDE96F
:105110000D44FBF7C7F841F6AC30C2F20000202185
:1051200000F1080C40F611324FF480730125C0E9FC
:1051300000648CE82E008461FEF724F8002818BF74
:10514000FBF738FE41F6AC30C2F20000FEF7F0FC8F
:10515000002818BFFBF72EFE06201A9010201B9087
:1051600041F6AC30C2F200001AA9FEF73FFD00285C
:1051700018BFFBF71FFE702017900020CDE9180024
:1051800041F6AC30C2F2000017A9FDF7A7FF0028D6
:1051900018BFFBF70FFE0120CDE91400169041F671
:1051A000AC30C2F2000014AA0221FDF723FF002850
:1051B00018BFFBF7FFFD60200D900020CDE90E0029
:1051C000CDE91000CDE9120041F6AC30C2F200008A
:1051D0000DA90022FEF7CAFA002818BFFBF7EAFD66
:1051E00041F6AC30C2F200000DA90422FEF7BEFA6F
:1051F000002818BFFBF7DEFD41F6AC30C2F200001C
:105200000DA90822FEF7B2FA002818BFFBF7D2FD5D
:1052100070200D9041F6AC30C2F200000DA90C22B6
:10522000FEF7A4FA002818BFFBF7C4FD4FF4006096
:1052300000904FF480604FF0807101904FF48070C7
:1052400008914FF0007141F6AC34029000200991B2
:105250000321C2F20004CDE90300CDE90500079067
:10526000CDE90A100C9069462046FDF763FE002840
:1052700018BFFBF79FFD2068B04201D024B070BD7D
:1052800041F24C00C4F20200016841F001010160EA
:1052900000681FA900F001001F901F984FF4E06004
:1052A0001F900220CDE920002290062023904FF08D
:1052B0009040FCF739FE24B070BD000080B588B086
:1052C00041F6F8300021C2F200004FF0804244F273
:1052D000682341F2883C0791CDE905110391CDE99E
:1052E0000111C0E90023C0E9021C01618161FDF7E1
:1052F00049FF002818BFFBF75DFD4FF48050049074
:1053000041F6F830C2F2000004A9FEF723F80028A5
:1053100018BFFBF74FFD00200190039041F6F830D5
:10532000C2F2000001A9FDF7D9FE002818BFFBF763
:1053300041FD08B080BD000080B588B041F6444012
:1053400040F200420021C2F20000C4F200024FF617
:10535000FF730791CDE905110391CDE90111C0E972
:105360000021C0E9021301618161FDF70BFF0028F4
:1053700018BFFBF71FFD4FF48050049041F64440E6
:10538000C2F2000004A9FDF7E5FF002818BFFBF7F3
:1053900011FD00200190039041F64440C2F200004C
:1053A00001A9FDF79BFE002818BFFBF703FD08B01D
:1053B00080BD000080B541F6904044F20041C2F249
:1053C0000000C4F2000100234FF00C0C4FF4E11276
:1053D00080E80E00C0E90333C0E905C3C0E9073324
:1053E000C0E90933FEF7D8FC002818BFFBF7E2FC40
:1053F00041F69040C2F200000021FEF787FC002831
:1054000018BFFBF7D7FC41F69040C2F20000002124
:10541000FEF736FC002818BFFBF7CCFC41F69040A5
:10542000C2F20000FEF710FC002808BF80BDBDE8F6
:105430008040FBF7BFBC000010B50446007818B1EF
:105440000020E08210BD00BF94F8260001F0E6FBCA
:105450004FF6FF71884207D0218B228A4B1E03FB37
:105460000200B0FBF1F02082204600F02FF8E0822D
:1054700010BD00000021018270470000017819B1C1
:10548000808A00B2704700BF018A026A891AB0F9A7
:105490001E20808C514300EB214000B27047000079
:1054A00010B50446007828B1618A0020E08221828C
:1054B00010BD00BF201D01F0C3FC0146204684F84A
:1054C0002610BDE81040FFF7D5BF0000018A428BCF
:1054D000914284BF08207047828B914234BF0020E4
:1054E000C08A7047B0F9220070470000C08C704736
:1054F000B0F9060070470000408B7047C08B7047C2
:10550000B0F9040070470000808B7047018C02687E
:1055100041840021C0E901218162704781607047A8
:10552000418470470122C18402FA01F181847047ED
:10553000C1807047B0B5054601208840688347F6B2
:10554000FF700C46E98300FA01F1284600F016F8D6
:1055500048F20100CFF6FF7000FA04F12846BDE8DA
:10556000B04000F009B800008180704701228183BB
:1055700002FA01F10183704701617047C160704711
:1055800070B50246B0F90430B0F90600B2F9146003
:10559000B2F916C003FB01FE90B1956800FB015300
:1055A0004143B3F1FF3F0DDD15EA010044BF012384
:1055B000C8F200031846D36898420EDD12E000BF1F
:1055C00000230FE01846002DC8BF6FF000400029EF
:1055D000D8BF1846D368984204DC13699842B8BF14
:1055E00018460346908BD58B4EFA00F043FA05F52A
:1055F0002844B04208DD34460029C8BF641A211A85
:10560000194430B2916070BD604509DA66460029E0
:1056100048BF761A311A6646194430B2916070BD9F
:1056200000210646194430B2916070BD70B5D0E9D2
:1056300042510023CA68D1F81610044621FB0231FA
:10564000D0F81001CA1701EB12410E1404F018FD36
:1056500048F2B5116843C1F64E3150FB01F081119B
:1056600001EBD070704300EB400046F267614000F0
:10567000C6F2666150FB01F0811401EBD071204647
:10568000BDE87040FFF7B2BAC169084710B50129FB
:1056900004460BD039B9204600F0FCF8B4F8660097
:1056A000A4F8520050B1002010BD00BFB4F8520061
:1056B00038B101380104A4F85200F4D12169204620
:1056C0008847012010BD000042681047F0B5B0F8CF
:1056D00064C0B0F840500CB2091401FB0CF1002278
:1056E00004FB05F3A2EB4102A3EB410304FB1524E9
:1056F00003EBD3714FEA610E04EBD47113F1020F87
:105700004FEA610118DC14F1020F31DC0422AEEB28
:10571000010180F87020CA1701EB9231891401EB66
:105720009C016242A1EB924C5A4201EB924E0A4616
:105730006546744674E000BFB4F1FF3F2EDB0122E2
:10574000AEEB010180F87020CA1701EB9231891489
:10575000E21701EB9C0104EB923201EBA24EDA1747
:1057600003EB9232A1EBA24C0A46754629E000BF3A
:10577000002A29DD022180F87010AEEB0201CD175E
:1057800001EB9531891401EB9C0C59420CEB9141D2
:1057900001EB524E6246754641E000BF002A29DD0A
:1057A0000023511A80F87030CB1701EB9331891424
:1057B00001EB9C0E6142AEEB9141A1EB524C724663
:1057C0000D4664462CE000BF0323511A80F8703068
:1057D000CB1701EB9331891401EB9C0CE11704EB1F
:1057E00091310CEBA141524201EB524E62460D4603
:1057F000744615E0052180F87010AEEB0201CD175C
:1058000001EB9531891401EB9C0ED91703EB913113
:10581000AEEBA1415242A1EB524C724665460C469A
:1058200022EAE27325EAE572B0F86250A0F84C1063
:1058300024EAE471012DA0F84AE0A0F84EC0A0F8D7
:105840004230A0F84420A0F846101ED1B0F86850AD
:10585000B0F954C06F423C46B0F956E0B0F9586018
:10586000BCF1000FC8BF2C462344A0F842303B4691
:10587000BEF1000FC8BF2B461A44A0F84420002EEA
:10588000C8BF2F463944A0F846108169BDE8F040F2
:105890000847000081680847C168084781B04FF693
:1058A000C071C3F6FF71826801F100531A40826033
:1058B0008268D2002FD4826801F140531A4042F02E
:1058C0008052826040F26452C2F20002126842F6D4
:1058D00063539209C0F23E53A2FB03236FF001020F
:1058E00002EA53120092009AAAB100BF009A013A4C
:1058F0000092009A7AB1009A013A0092009A52B14D
:10590000009A013A0092009A2AB1009A013A009254
:10591000009A002AEAD18268114001F100418160B9
:10592000816800290AD58168B1F1FF3F06DC8168F2
:10593000B1F1FF3F02DC81680029F1D40168C90799
:105940004FF6C071C7F6FF7120D100BF82680A40D0
:1059500042F0010282600268D20717D182680A40D1
:1059600042F0010282600268D2070FD182680A40C9
:1059700042F0010282600268D20707D182680A40C1
:1059800042F0010282600268D207DFD082684FF6DF
:10599000FF730A4042F0080282608268C7F6DF7334
:1059A0000A4042F020028260C2681A4002F50012EA
:1059B000C2608268114041F00401816001B070470B
:1059C000002804BF0020704780B590F88C1029B1E2
:1059D000012180F88A106E3080BD00BFD0F8901091
:1059E00091F8C020022AF3D101F1200EB1F8AC20C9
:1059F0009EE808509A62B1F8AE20CCF82820B1F8A1
:105A0000B010CEF82810012180F88A106E3080BDC9
:105A1000002804BF00207047D0F8901089684A6CB5
:105A200042F480624A6440F20111A0F88B106E309B
:105A3000704700002DE9F04782B00446D0F890008E
:105A400094F874100668D0F804A04FF6C078C7F632
:105A5000FF7889B1B06800EA080040F00800B06043
:105A6000DAF8080000EA080040F00800CAF8080068
:105A70008020A4F88600A2E085686068A169019092
:105A80000020A1460091C4E91E00C4F8800009F876
:105A9000880F286A40F255518843286245F61D5008
:105AA000C0F60000606046F69900C0F60000A061F4
:105AB0008020A4F886000420702784F8890084F8E8
:105AC00070002046C0F2002700F090FF6868384060
:105AD00070280BD068683840702807D06868384054
