:020000040800F2
:10000000F8050020ED010008B13B0008E1360008CA
:10001000AD3B00086D0900083143000800000000F6
:10002000000000000000000000000000393C000853
:100030007D09000800000000B53B00083D3C0008B9
:10004000070200080702000807020008070200086C
:10005000070200080702000807020008070200085C
:1000600007020008070200080702000871090008DB
:10007000070200080702000807020008070200083C
:1000800007020008000000004108000807020008FD
:10009000070200080702000807020008070200081C
:1000A000553C00086D3C0008613C00080702000850
:1000B00007020008070200080702000807020008FC
:1000C00007020008070200080702000807020008EC
:1000D00007020008070200080702000807020008DC
:1000E00007020008070200080702000807020008CC
:1000F00007020008070200080702000800000000CD
:1001000000000000070200080000000007020008CD
:1001100007020008000000000702000807020008AC
:10012000070200080702000807020008070200088B
:10013000070200080000000000000000070200089D
:10014000070200080702000800000000000000008D
:10015000000000000000000000000000000000009F
:10016000000000000000000000000000070200087E
:10017000070200080000000000000000000000006E
:10018000000000000702000800000000000000005E
:10019000000000000000000000000000000000005F
:1001A000000000000000000007020008070200082D
:1001B000070200080702000807020008000000000C
:1001C000000000000702000800000000000000001E
:1001D0000702000807020008DFF80CD000F0AEFAB2
:1001E0000048004769470008F80500200648804796
:1001F00006480047FEE7FEE7FEE7FEE7FEE7FEE70C
:10020000FEE7FEE7FEE7FEE7413C0008D9010008F3
:100210002DE9F05F0546002092469B46884606463B
:10022000814640241BE0284641464746224600F0CE
:1002300086F853465A46C01A914110D311461846C3
:10024000224600F06DF82D1A67EB01084F46224652
:100250000120002100F064F817EB00094E41201E38
:10026000A4F10104DFDC484631462A464346BDE896
:10027000F09FD2B201E000F8012B491EFBD270477B
:100280000022F6E710B513460A4604461946FFF762
:10029000F0FF204610BD00F0004230F000400AD0D0
:1002A000C10D01F56071C0F3160042EA0151C208A8
:1002B00040071143704700200146704701F000439A
:1002C00030B421F0004150EA010206D00A0DA2F537
:1002D0006072C1F31301002A02DC30BC00207047B9
:1002E000440F44EAC104C100E01830BC00EBC25026
:1002F00000F035B830B50B4601460020202201241D
:1003000009E021FA02F59D4205D303FA02F5491BE3
:1003100004FA02F52844151EA2F10102F1DC30BDF9
:10032000202A04DB203A00FA02F1002070479140B5
:10033000C2F1200320FA03F3194390407047202AAA
:1003400004DB203A21FA02F00021704721FA02F37F
:10035000D040C2F12002914008431946704700295D
:10036000A8BF7047401C490008BF20F0010070473B
:1003700010B4B0FA80FC00FA0CF050EA010404BF9B
:1003800010BC704749B1CCF1200421FA04F411FAF1
:100390000CF118BF012121430843A3EB0C01CB1D35
:1003A0004FEA00614FEA102042BF002010BC7047A6
:1003B00000EBC35010440029A4BF10BC7047401C80
:1003C000490008BF20F0010010BC70472DE9FE4F26
:1003D000804681EA0300C00F0C46009021F00041E6
:1003E00023F00045B8EB0200A94105D24046214662
:1003F00090461C460B46024623F00040104347D06F
:10040000270DC7F30A00C3F30A510290401A019066
:1004100040286BDAC3F3130040F4801B0098924627
:1004200020B10023D2EB030A63EB0B0B0198594672
:10043000C0F140025046FFF773FF06460D46504696
:100440005946019A00F08CF910EB08006141002434
:1004500087EA115284EAE7731A4340D0009A62B3E4
:10046000019A012A4FEA075215DC001B61EB0201D9
:100470004FF0004202EA0752CDE90042001C41F56C
:10048000801132462B4600F08CF903B0BDE8F08FA6
:1004900040462146F9E7001B61EB0201001C41F5D3
:1004A000801300185B412018A2F5001747EB0301E9
:1004B00040EAD570B6196D4111E06D084FEA360675
:1004C00045EAC0754FEA0752001B61EB0201001CB0
:1004D00041F5801149084FEA300000195141324678
:1004E0002B4603B0BDE8F04F00F04CB90098012254
:1004F00040000023D0EB020263EBE073009821463A
:100500004FEAE074B8EB000061EB0401E9E783F027
:1005100000435BE781F0004158E72DE9FE4F81EA97
:10052000030404F0004421F0004100944FF0000B5C
:1005300023F0004350EA01045ED052EA03045BD08A
:10054000C3F30A54C1F30A552C44A4F2F3340194C2
:10055000A0FB0254C1F3130141F48011C3F3130350
:1005600043F4801301FB024400FB034E840A970A04
:1005700044EA815447EA8357A4FB076802958D0A31
:1005800005FB07854FEA932C04FB0C542705029DBD
:100590004FEA065847EA1637B5EB08056EEB070C2D
:1005A000870E920E47EA811742EA8312A7FB0201E7
:1005B000B6EB0B0164EB00042B0D43EA0C335E1821
:1005C00044EB1C50DA465146E7FB0201C5F3130425
:1005D0004FEA0B3343EA14534FEA0432019C43EAD7
:1005E0000603A4F10C040294009CCDE900B400F0D1
:1005F000D8F803B0BDE8F08F00200146F9E72DE9F7
:10060000F04D81EA030404F0004B21F0004514464C
:100610004FF0000A23F0004150EA050220D054EACE
:1006200001021DD0C5F30A570246C5F31303C1F3F7
:100630001300C1F30A5640F4801543F48013A7EB6E
:100640000608101BD64608F2FD3873EB050002D3EE
:1006500008F1010801E092185B41B8F1000F03DADC
:1006600000200146BDE8F08D00204FF480110646C1
:1006700084460EE0171B73EB050705D3121B63EBD3
:10068000050306434CEA010C49084FEA3000921872
:100690005B4150EA0107EDD152EA030012D082EA31
:1006A000040083EA0501084305D0101BAB4106D2C4
:1006B0000122002306E000224FF0004302E06FF029
:1006C000010253101AEB06004CEB085110EB0A0024
:1006D00041EB0B01BDE8F04D00F054B8C1F30A52F4
:1006E000C1F3130140F2FF3341F480119A4202DA60
:1006F00000200146704740F233439A42A2F233424F
:1007000002DC5242FFF71BBEFFF70ABE30B5041EE3
:1007100071F1000404DB4FF00044404264EB01013E
:10072000141E73F1000405DB1C464FF000435242D7
:1007300063EB0403994208BF904230BD064C074D5D
:1007400006E0E06840F0010394E8070098471034A1
:10075000AC42F6D3FFF744FD1C5400083C5400089B
:10076000202A06DBCB17203A41FA02F043EAE07375
:1007700006E041FA02F3D040C2F120029140084362
:100780001946704710B5141E73F1000408DA401CB6
:1007900041F1000192185B411A4301D120F00100A0
:1007A00010BD2DE9F04D92469B4611B1B1FA81F290
:1007B00002E0B0FA80F220329046FFF7B1FD044625
:1007C0000F4640EA0A0041EA0B0153465A460843E5
:1007D00013D0114653EA010019D0C8F14002504627
:1007E000FFF7ADFD05460E46504659464246FFF717
:1007F00097FD084305D0012004E020463946BDE8B6
:10080000F08D0020054346EAE0762C4337430A98F2
:100810006305E40AA0EB08000022FD0A44EA4754FD
:100820000A3002D500200146E9E7010510196941A7
:10083000DDE9084500196941BDE8F04DA2E7000077
:1008400040F24800C2F2000000F0E6BA0146806AB9
:10085000C36DC26D13F0500F08D0D20648BF00F030
:10086000D9BA406D426B0846104700BF42F4007190
:10087000C16501680B68CA681B0711D491070CD4C5
:10088000C16D21F48071C165C16DC90448BF00F01C
:10089000BDBAC16D41F00101C16500F0B7BA00BF3A
:1008A00012F4406FF9D1C9688904F6D4C16D21F4FE
:1008B0008071C165C16DC904EFD4C16D41F0010102
:1008C000C16500F0A3BA0000806AC16D41F040012B
:1008D000C165016E41F00401016600F09BBA0000A1
:1008E000806A00F095BA000070B50446006881681F
:1008F000C90739D14FF6C076C7F6FF76816806F191
:100900007F0211420AD0E06D40F01000E065206ED9
:1009100040F001002066012070BD00BF81683140B9
:1009200041F00101816001F00FF821680A68D207E7
:100930001CBF002070BD054603E000BF0868C0076B
:1009400012D18868C00704D18868304040F00100A7
:10095000886000F0F9FF401B21680328EED3086887
:10096000C007EBD1CFE700BF002070BDFEE700005D
:1009700040F2B400C2F2000000F090BD70470000E9
:10098000EFF3108072B600BFFEE700007047000072
:10099000704700007047000070470000704700007B
:1009A00070B582B090F85820012A03D10221084680
:1009B00002B070BD0022019200920268B2F1A04F15
:1009C00030D140F208324FF6006C4FF60055C5F2B8
:1009D0000002CFF6FF7CCFF6FF7552F80C4053595A
:1009E00023435B071ED4D1F800E01368BEF1000F6B
:1009F00023F4604422D04B6890F83860234343EAE4
:100A000046331360535952F80C603343DB0723D14C
:100A10001368896840F61F76B34341EA0E01194313
:100A200017E000BFC16D41F02001C1650121002226
:100A300080F85820084602B070BD00BF14605159BC
:100A400052F80C301943C90708D1116840F61F73DA
:100A5000994311600021EAE70021E8E70021E6E779
:100A6000F0B581B00022009290F85820012A03D1FD
:100A70000221084601B0F0BD0123076880F8583014
:100A8000BB685B0734D4D1E900531F26C3F30124AC
:100A900007EB8404226B03F01F039E40B243C5F3AF
:100AA000846606FA03F31A432263BA68BB68DB085C
:100AB00043EA9202D20740F0BC800A6807F11403AF
:100AC0000426C2F34064D1F808E006EAD25C53F889
:100AD0002450C2F304540722A240BEF1004F25EA7D
:100AE00002050BD143F80C501A6842F000430DE0A8
:100AF000C16D41F02001C165012180E10EFA04F2CF
:100B00002A4343F80C201A6822F000437B61D1E9A4
:100B10000434FD68042B5FD13A6E3A6E0B68C2F361
:100B2000846293FAA3F6C3F3846C6FF3DF43B6FADF
:100B300086F5002B2C464FF6FF7E08BF6446A24286
:100B4000C0F2070E0CD13A6E22F000423A660A68F3
:100B500002EA0E03C2F3846C92FAA2F2B2FA82F5B0
:100B60007A6E7A6E002BC2F384622C4608BF64460C
:100B7000A2420CD17A6E22F000427A660A6802EA3A
:100B80000E03C2F3846C92FAA2F2B2FA82F5BA6E44
:100B9000BA6E002BC2F384622C4608BF6446A242A0
:100BA0000CD1BA6E22F00042BA660A6802EA0E035D
:100BB000C2F3846C92FAA2F2B2FA82F5FA6EFA6E7D
:100BC000002BC2F3846208BF6546AA4231D1FA6E97
:100BD00022F00042FA662CE0062202EA95020E6834
:100BE00007F1600504FA02FC55F823404FF20002B9
:100BF000C0F2FF3206F0F846224046EA0C063243C5
:100C000042F0004245F823200A698B6955F82260BA
:100C100026F08076334345F822300A690B7F55F879
:100C20002260012B26F0007608BF06F1007645F819
:100C30002260BA68D2074CD10C68CA6800262346E5
:100C4000C4F27F06B2426FF3DF4319D1D7F8B02068
:100C500042EA0302C7F8B020C3B194FAA4F2B2FA90
:100C600082F2013202F01E03092B02F01F0316D894
:100C700001229A4003EB430342EA03531BE000BF07
:100C8000D7F8B0209A43C7F8B02022E0012202EB47
:100C9000946202F01E030A2B02F01F03E8D3012224
:100CA00000269A4003EB4303CFF6206606EB03537E
:100CB0001A4342F00073C3F3406607EB86068A6866
:100CC0007569C3F3045307249C40A5439A402A4303
:100CD00072610C680021C8F208010C4254D040F245
:100CE000083CC5F2000CDCF800300021CCF22131C8
:100CF0008C4203F0E07E04D01021C9F2C0018C4286
:100D000044D1B7F1A04F4FF0000108BF13F4000227
:100D100075D1DCF8001042F6635221F0E07141EA2F
:100D20000E0141F40001CCF8001040F20C01C2F2B7
:100D300000010968C0F23E528909A1FB0212910923
:100D400001EB41010C2202EB810100910099002985
:100D50004CD0009901390091009900294AD000999E
:100D6000013900910099002946D00099013900917C
:100D70000099002942D00099013900910099002979
:100D80004FF00001E5D13AE0002138E00021CCF23B
:100D900052718C4208BF13F0807117D0ACF502710C
:100DA0008F424FF000012AD00022CCF684329442C8
:100DB00008BF13F4800222D1DCF8001021F0E071AA
:100DC00041EA0E0141F480010CE000BFACF5027174
:100DD0008F420DD0DCF8001021F0E07141EA0E01E5
:100DE00041F08071CCF80010002108E0002106E0FD
:100DF000002104E0002102E0002100E000210022A7
:100E000080F85820084601B0F0BD0000704700008F
:100E100070470000704700002DE9F041016804466A
:100E200040F2001808684A68C5F20008D8F808625D
:100E300002EA0005A8070CD5E06DC00603D4E06DFA
:100E400040F40060E0652046FFF7A0FD2168022025
:100E5000086015F00C0F06F01F0743D0E06DC006C8
:100E600003D4E06D40F40070E065C86810F4406F92
:100E700032D10846414508BF4FF0A040884218BF14
:100E80000046002F08BF0846052F08BF0846092F57
:100E900008BF0846C06880041ED4086800071BD538
:100EA0008868400710D4486820F00C004860E06D66
:100EB00020F48070E065E06DC0040DD4E06D40F07A
:100EC0000100E06508E000BFE06D40F01000E06563
:100ED000206E40F0010020662046FFF797FF216852
:100EE0000C20086015F0600F22D0E06DC00603D41E
:100EF000E06D40F40050E0650A46CB6CC86841459F
:100F000008BF4FF0A0428A4218BF124606F01E06E4
:100F1000002F08BF0A46062E08BF0A46D26813F4FF
:100F2000C07F61D02046FFF733FD21686020086054
:100F3000280607D4E80511D4A8051CD4E8063ED538
:100F400026E000BFE06D40F48030E065204600F010
:100F5000A1F9216880200860E805EDD5E06D40F436
:100F60000030E0652046FFF717FD21684FF48070E0
:100F70000860A805E2D5E06D40F48020E0652046D9
:100F8000FFF70CFD21684FF400700860E80616D5E5
:100F9000E06B30B1002F4BD0D8F8080210F4604F4E
:100FA0000BD0E06D40F48060E065206E40F0020000
:100FB00020662046FFF72EFF216810200860680594
:100FC00058BFBDE8F081E06D4FF4806240F480408E
:100FD000E065206E40F00800206620460A60BDE80B
:100FE000F041FFF7D7BC00BF930105D500F4406086
:100FF00002F40053C01895D10868920292D410F000
:1010000040003FF48FAF8868000715D4486820F08F
:1010100060004860E06D20F48050E065E06DC00540
:101020003FF580AFE06D40F00100E0657AE700BF7A
:10103000C868C007B5D1C0E7E06D40F01000E065BA
:10104000206E40F0010020666CE70000B0B582B071
:101050000446002001904CB1E06D58B121688868C9
:10106000800012D48868C00019D54CE0012002B07D
:10107000B0BD00BF204600F00FF90020206684F8C4
:101080005800216888688000ECD588684FF6C072E7
:10109000C5F6FF72104088608868C00033D44FF6F0
:1010A000C0728868C5F6FF7202F18052104000F1EC
:1010B0008050886040F20C00C2F20000006842F6E6
:1010C00063528009C0F23E52A0FB02029009022244
:1010D00002EB400001900198A8B100BF01980138CF
:1010E0000190019878B1019801380190019850B1B0
:1010F000019801380190019828B1019801380190B8
:1011000001980028EAD18868C00009D4E06D40F059
:101110001000E065206E40F001002066012000E034
:1011200000208A68E36DC2F3800203F01003D21836
:10113000E26D05D042F010010120E16502B0B0BDC2
:1011400022F481720232E2658A68D2071AD140F233
:10115000083C4FF600534FF60062C5F2000CCFF684
:10116000FF73CFF6FF725CF803305CF802201A437D
:10117000D20707D16268DCF8003023F47C131A43ED
:10118000CCF80020627FE36B43EA4232D4E902C329
:101190001A4394F8243042EA0C02012B42EA03423B
:1011A00007D1D4F828C00023CFF6FE7303EB4C43DD
:1011B0001A43E36A33B103F47873D4F830C01A43A6
:1011C00042EA0C02D1F80CC044F20703CFF6F073E8
:1011D00003EA0C031A43CA600A69636B22F0406297
:1011E0001A430A618A688B68DB0843EA9202D207D5
:1011F0003FD194F83820237F520042EA833CCB68E9
:1012000044F2020223EA020242EA0C02CA602269A4
:101210000B695AB143F480330B61D1F8C0C043F677
:10122000FF732CEA03031A4308E000BF23F4803263
:101230000A61D1F8C02043F6FF739A43C1F8C02079
:1012400094F840300A69012B10D140F2FD7322EA74
:10125000030CD4E91132D4E913E543EA0C031A4331
:1012600042EA0E022A4342F0010201E022F00102AA
:101270000A6162690B6B012A23F00F0202D1236A13
:10128000013B1A430A63E16D012262F30101E1654A
:1012900002B0B0BD70470000F0B597B00446002022
:1012A0001690CDE91400CDE9120001A804304021C8
:1012B000FEF7E6FF2068B0F1A04F01D017B0F0BDF7
:1012C0004FF4004001904FF00050109001A800F042
:1012D00095FC002818BFFFF753FB41F24C00C4F205
:1012E0000200016812AD41F400510160016803275A
:1012F00001F40051009100990168002641F00101BC
:101300000160016801F0010100910099016841F05C
:10131000020101600068294600F002000090009878
:101320004FF09040CDE91277149600F019FA0220A0
:10133000CDE9120740F20040C4F600002946149699
:1013400000F00EFA40F2B4050820C2F20005C4F223
:10135000020005214FF4807385E8430005F1140075
:101360004FF480674FF0200C80E888104FF4005055
:10137000802228622846C5E9036200F0E9F80028C7
:1013800018BFFFF7FDFA1220002100226565AC624C
:1013900000F050FB122000F03DFB17B0F0BD000044
:1013A0002DE9F04140F200170446C5F20007D7F8D6
:1013B0000802236890469B685A0704D40E4694F8A6
:1013C0005810012902D10220BDE8F08100F01F056C
:1013D0000120092D84F858005AD8A84040F2212154
:1013E000084255D02046FFF77FFA28B1002184F843
:1013F0005810BDE8F08100BF2168E06D40F6017231
:10140000904300F58072B942084608BF4FF0A040F3
:10141000002DE26518BF884203D1E06D20F48010F2
:10142000E065E06D40F64D03C0044FF0000044BF9E
:10143000206E20F006002066606D40F6E107C0F6E1
:101440000003C0F6000740F6C9050022C0F60005FB
:10145000C0E90B371C2345630B6084F858204A68A9
:10146000434642F010024A60CA6842F00102CA6074
:101470004031324600F002F921684FF6C0738A68A5
:10148000C7F6FF731A4004328A60BDE8F08100BFDE
:10149000002084F858000120BDE8F081B0B5026852
:1014A000D0E910C4DCF80050136804F01F0E59078F
:1014B00014D5042101FA0EF414EA05010ED01168C6
:1014C000890603D4116821F004011160CCF80440AE
:1014D000016B00293AD0BDE8B0400847990719D5FB
:1014E000022101FA0EF414EA050113D011688906ED
:1014F00006D4116821F00A011160012180F825103D
:10150000CCF80440C16A002280F82420F1B1BDE883
:10151000B0400847190719D5082101FA0EF12940F2
:1015200008BFB0BD116821F00E011160012101FA60
:101530000EF2CCF80420C16380F82510416B002224
:1015400080F8242011B1BDE8B0400847B0BD0000CC
:1015500000284FF0010100F08E802DE9F04740F2A5
:10156000000CC4F2020C03684FF6F8320CF5816EE1
:10157000CBF6FD72734538BF02F580624CF6CD4460
:101580001A44CCF6CC44A2FB04286FF0070252FAAE
:1015900083F2A2FB04290CF580656FF00304D0E907
:1015A0000262D0F810A03CBF0025C4F2020504EA94
:1015B0009804C0E91054022580F825501D6847F6AC
:1015C000F07725EA070737433A43476942EA0A02B8
:1015D00085693A43C7692A43056A3A432A431A6030
:1015E0000CF50262734538BF0CF50062A3180CF5C8
:1015F0000862C264C9F3041240F6840C01FA02F2D4
:10160000B6F5804FC4F2020C8364026506D1002156
:1016100041601960CCF800201EE000BF41685FFA0D
:1016200081FE013903294FF00001C3F800E0CCF836
:10163000002011D8AEF101020CEB820747F87C1FA5
:1016400002F01F01012202FA01F30CF1BC0239463B
:10165000CCF8C03002E000BF0022002300F1540C9F
:101660008CE80E0000210122C16380F8252080F85B
:101670002410BDE8F0470846704700002DE9F0410E
:1016800090F824C0BCF1010F43D04FF0010C80F85A
:1016900024C090F825C0BCF1010F37D14FF0020CE7
:1016A00080F825C04FF0000CC0F83CC0D0F800C056
:1016B00000F14C0E9EE83040DCF80060BEF1000FF7
:1016C00026F00106CCF8006065601CBFD0E9164525
:1016D0006560D0E91076012506F01F068468B540E4
:1016E000D0F830807D60CCF804300B46102C04BF5D
:1016F00013460A46CCF80830CCF80C20DCF8001071
:10170000B8F1000F08D041F00E010DE0002180F883
:1017100024100220BDE8F08121F00401CCF8001073
:10172000DCF8001041F00A01CCF80010806C016870
:10173000C90303D5016841F480710160BEF1000F57
:1017400005D0DEF8000040F48070CEF80000DCF830
:10175000000040F00100CCF800000020BDE8F0815E
:101760002DE9F04F84B00C680190002C00F0E2806D
:10177000019841F2004600F13842C4F600068E4658
:101780004FEAB2270621B04208BF0521052F4FF0CE
:1017900000054FF001074FF000064FF0000838BF7A
:1017A0004FEAB2210091CDF808E00DE0DEF80040EC
:1017B00008F1010834FA07F106F1020607F1010702
:1017C00005F1040500F0B680A7F1010A012000FA36
:1017D0000AF214EA0209E9D0DEF804C00CF0030BA7
:1017E000ABF10104012C17D80198744681680323DA
:1017F000E468B3409943B4402143816041684FEAB3
:10180000480E9143CCF3001202FA0AF20446D84380
:10181000114361600CE000BF0321B140019CC8434B
:10182000BBF1030FB64603D1B6464FF0030B23E0DE
:10183000E168029B01409A68BBF1020F02FA0EF2C6
:1018400041EA0201E16017D16FF0030101EA5A0198
:10185000214405F01C040F22D1F820C002FA04FB39
:101860001A692CEA0B0CA24042EA0C02019C0A62A3
:10187000D3F804C00CF0030B21680BFA0EF2014000
:1018800011432160DDF808E01CF4403F8ED041F2A6
:101890006000C4F20200016840F2004C41F0010116
:1018A00001600168C4F2010C01F001010391039988
:1018B0002AF003014FF6084A6144CFF6FF7A05F09B
:1018C0000C030F2051F80A2000FA03F40098A243F9
:1018D00000FA03F31A4341F80A20DCF80810DEF896
:1018E000042041EA090340F20C40D40258BF21EA27
:1018F0000903CCF80830C4F201000168940241EAFF
:10190000090358BF21EA09030360DCF804109403BB
:1019100041EA090358BF21EA0903CCF80430DCF896
:101920000010D20341EA090358BF21EA0903CCF8A9
:1019300000303BE704B0BDE8F08F00001823002A18
:1019400008BF2823C150704740F2F010C2F20000D7
:101950000068704740F2040040F2F011C2F200004B
:10196000C2F2000140680A68104408607047000035
:1019700080B5032000F08AF8002000F009F8002864
:101980001CBF012080BD00F02BF8002080BD0000AE
:1019900070B540F20406C2F200067168E1B1044677
:1019A00040F20C00C2F200004FF47A720068B2FB01
:1019B000F1F1B0FBF1F000F0A3FE0F2C4FF00105A8
:1019C00008D838B94FF0FF3021460022002500F03A
:1019D00031F83460284670BD0125284670BD0000EE
:1019E00082B041F25800C4F20200816841F0010166
:1019F0008160816801F0010101910199016841F064
:101A000080510160006800F080500090009802B0A2
:101A100000F0EAB8002848BF704700F01F0101221B
:101A200002FA01F14EF200124009CEF2000242F831
:101A30002010704710B54EF60C5CCEF2000CDCF8AE
:101A40000030C3F3022E8EF00704042C28BF0424B8
:101A5000BEF103034FF0FF3E0EFA04F438BF00233B
:101A6000A14399400EFA03F39A4300F00F03043B9D
:101A70001143634409010C3300F16042B0F1FF3FB0
:101A8000C8BF02F56443197010BD00004EF60C513A
:101A9000CEF200010A684FF6FF031A4060F30A22F3
:101AA00042F0806040F0FD7008607047B0F5007F44
:101AB00048D0002840F08A8047F21400C4F20000A9
:101AC00050F8141CC26E01F4C06122F48072B1F5AA
:101AD000806FC26633D150F8141C012262F34A2190
:101AE00040F8141C40F20C01C2F2000109683222D5
:101AF00051434DF68362C4F21B32A1FB0212910CDA
:101B000002684B1C18BF12F4806213D002680029CF
:101B100018BF12F480620DD00268012918BF12F4B8
:101B2000806207D00268022904D012F48062A1F119
:101B30000401E5D10068400544BF03207047002040
:101B4000704700BF47F21400C4F2000050F8141CA4
:101B5000C26E01F4C06142F48072B1F5806FC2665A
:101B6000EDD150F8141C012262F34A2140F8141CF4
:101B700040F20C01C2F200010968322251434DF6D5
:101B80008362C4F21B32A1FB0212910C02684B1C4F
:101B900018BF12F4806213D00268002918BF12F433
:101BA00080620DD00268012918BF12F4806207D04C
:101BB0000268022904D012F48062A1F10401E5D187
:101BC0000068400544BF03207047B8E747F214009F
:101BD000C4F2000050F8141C022262F34A2140F8BB
:101BE000141C00207047000047F20800C4F20000F7
:101BF000016841F480410160704700002DE9F04127
:101C000082B00446807841F288060007C4F20206DA
:101C100002D400202FE000BF56F8300C10F080589E
:101C20000BD156F8300C40F0805046F8300C56F886
:101C3000300C00F080500190019847F20007C4F288
:101C40000007386840F480703860FFF77DFE054675
:101C50003868C00500F1D680FFF776FE401B0228E9
:101C6000F6D90320B8F1000F05D156F8301C21F049
:101C7000805146F8301C2168CA0713D18A0719D44D
:101C80004A071FD40A0725D48A062BD44A0631D422
:101C90000A0637D4CA053DD48A0543D44A0549D437
:101CA00057E000BF3268636822F003021A433260D3
:101CB0008A07E5D53268A36822F00C021A43326025
:101CC0004A07DFD53268E36822F030021A433260F7
:101CD0000A07D9D53268236922F0C0021A4332605C
:101CE0008A06D3D53268636922F440621A433260AF
:101CF0004A06CDD53268A36922F440521A433260B5
:101D00000A06C7D53268E36922F440421A433260BA
:101D1000CA05C1D53268236A22F440321A433260C0
:101D20008A05BBD53268636A22F440221A433260C6
:101D30004A050ED53268A36A22F440121A43B3F55D
:101D4000801F326005D156F87C2C42F4801246F890
:101D50007C2C0A050ED53268E36A22F440021A434D
:101D6000B3F5800F326005D156F87C2C42F4801216
:101D700046F87C2CCA040ED53268236B22F04072E0
:101D80001A43B3F1807F326005D156F87C2C42F4BF
:101D9000801246F87C2C8A040ED53268636B22F0E0
:101DA00040621A43B3F1006F326005D156F87C2CC3
:101DB00042F4801246F87C2C4A040ED53268A36B9C
:101DC00022F040621A43B3F1006F326005D156F839
:101DD0007C2C42F4801246F87C2C09040ED5316824
:101DE000E26B21F040511143B2F1805F316005D1C7
:101DF00056F87C1C41F4803146F87C1C02B0BDE8EA
:101E0000F08100BFB06810F4407010D0216C88429F
:101E10000BD0B068B16820F4407041F48031B160FB
:101E2000B16821F48031B160B060C0070CD1B068F6
:101E3000216C20F440700843B0600020B8F1000F1E
:101E40007FF419AF11E700BFFFF77EFD054641F2B1
:101E5000883700BFB0688007E9D4FFF775FD401BE5
:101E6000B842F7D9FDE600002DE9F04700286DD013
:101E700042F2000AC4F2020A0446DAF800000D46F3
:101E800000F00F0088420CD2DAF8000020F00F00BA
:101E90002843CAF80000DAF8000000F00F00A8425A
:101EA00054D1216841F20808C807C4F2020803D1DE
:101EB000880740F1D880BDE0606802283AD0032846
:101EC00040D158F8082C920140D5D8F80420D8F811
:101ED000043042F2004702F00302C3F30313C0F2DE
:101EE000F4070133032A04BF41F20027C0F27A0746
:101EF000D8F80420B7FBF3F3D8F80470C2F3062235
:101F00005A43C7F34163022707EB4303B2FBF3F2E3
:101F10004BF20043C0F2C4439A4261D9D8F8002082
:101F200012F0F00F51D089075AD5A168002957D176
:101F30004BE000BF58F8081C89035CBF0120BDE8D6
:101F4000F08707E058F8081C490503D40120BDE8D4
:101F5000F08700BFD8F8001001F00C0104293FD031
:101F6000D8F8001001F00C01082939D0D8F8001079
:101F700001F00C010C2933D1D8F80410D8F8042052
:101F800042F2004301F00301C2F30312C0F2F40372
:101F90000132032904BF41F20023C0F27A03D8F8CA
:101FA0000410B3FBF2F2D8F80430C1F30621514318
:101FB000C3F34162022303EB4202B1FBF2F14BF2A5
:101FC0000042C0F2C44291420AD9D8F80010082257
:101FD00062F307114FF00109C8F8001002E000BFDA
:101FE0004FF00009D8F8001021F003010843C8F8A9
:101FF0000000FFF7A9FC064641F28837D8F8000038
:10200000616800F00C00B0EB810F07D0FFF79CFC7B
:10201000801BB842F2D90320BDE8F0872168880709
:1020200008D4B9F1000F1ED0D8F8000020F0F0005D
:1020300017E000BF480705D5D8F8000040F4E0607D
:10204000C8F80000080706D5D8F80000072262F398
:102050000D20C8F80000D8F80000A26820F0F000B9
:102060001043C8F80000DAF8000000F00F00A842A2
:102070001BD9DAF8000020F00F002843CAF800004E
:10208000FFF762FC064641F2883700BFDAF800002D
:1020900000F00F00A84207D0FFF756FC801BB842A3
:1020A000F4D90320BDE8F0872168480707D5D8F8A0
:1020B0000000E26820F4E0601043C8F80000080760
:1020C00008D5D8F80000216920F4605040EAC1002A
:1020D000C8F80000D8F8000042F20041C0F2F40154
:1020E00000F00C00042808462DD0D8F8000000F0BD
:1020F0000C00082841F20020C0F27A0023D0D8F862
:10210000002002F00C020C2A1CD1D8F80420D8F8C8
:10211000043002F00302C3F303130133032A08BFA0
:102120000146D8F80400B1FBF3F1D8F80420C0F35D
:1021300006204843C2F34161022202EB4101B0FB99
:10214000F1F000E00020D8F8001045F2CC12C1F305
:102150000311C0F60002515C40F20C0201F01F01B5
:1021600020FA01F140F20400C2F200000068C2F25D
:1021700000021160BDE8F047FFF70ABC40F20C0016
:1021800041F20801C2F20000C4F2020100680968CD
:1021900045F2DC12C1F30221C0F60002515C01F0ED
:1021A0001F01C8407047000040F20C0041F20801D6
:1021B000C2F20000C4F202010068096845F2DC12B4
:1021C000C1F3C221C0F60002515C01F01F01C840FA
:1021D0007047000041F20C01C4F2020151F8040CF6
:1021E00042F20042C0F2F40200F00C000428104653
:1021F00008BF704751F8040C00F00C00082841F2A9
:102200000020C0F27A0021D051F8043C03F00C0306
:102210000C2B1CBF00207047D1F800C00B680CF0DD
:10222000030CC3F303130133BCF1030F08BF0246D1
:102230000868B2FBF3F20968C0F306205043C1F30B
:102240004161022202EB4101B0FBF1F07047000056
:102250002DE9F04182B0002800F0068104460078A4
:1022600041F20006C007C4F2020655D1207880076B
:1022700074D42078000700F197802078400700F19F
:10228000B7802078800600F10781E069002840D0FF
:10229000B16801F00C010C2940F05681012800F0D2
:1022A000E380F068216A00F003028A4240F0DC809B
:1022B000626A6FF00F0300F0F00103EB021291422B
:1022C00040F0D280A16A00F4FE42B2EB012F40F050
:1022D000CB80E16A00F07842B2EBC16F40F0C4807D
:1022E000226B0023CFF6E07303EB025200F4C0012F
:1022F0006FF31402914240F0B780616B4FF07E4261
:1023000002EB016100F0C06001F07E41884240F0C4
:10231000AB800020F1E100BFB06800F00C01F06874
:1023200008295BD0032281F00C0122EA0000084456
:10233000B0FA80F0400951D16068B0F5803F07D015
:10234000B0F5A02F40F0D680306840F48020306097
:10235000306840F480303060D7E000BFB068F1688A
:1023600000F00C00042869D001F0030180F00C009B
:1023700081F002010844B0FA80F040095ED1E168C2
:102380003068002900F0CE8040F480703060FFF7A4
:10239000DBFA05463068400500F1EC80FFF7D4FA1F
:1023A000401B0228F6D920E16169D6F89400002983
:1023B00000F08C8040F00100C6F89400FFF7C4FAEA
:1023C000054600BFD6F8940080073FF556AFFFF7EB
:1023D000BBFA401B0228F5D907E100BF3068800333
:1023E0007FF544AF606800287FF440AF3CE000BF59
:1023F000B06D10F0805808D1B06D40F08050B065DD
:10240000B06D00F080500190019847F20007C4F2CF
:1024100000073868C0052BD4386840F480703860F5
:10242000FFF792FA054600BF3868C00520D4FFF7D1
:102430008BFA401B0228F7D9D7E000BF306840056F
:1024400001D5E06880B17068216920F0FE4040EA63
:102450000160706040F20400C2F200000068FFF703
:1024600097FA00283FF405AF012002B0BDE8F081E3
:10247000A068012808D0052840F09A80D6F890007E
:1024800040F00400C6F89000D6F8900040F001003B
:10249000C6F890009AE000BFA169D6F8980000291C
:1024A00070D040F00100C6F89800FFF74DFA0546DD
:1024B000D6F8980080073FF5E8AEFFF745FA401BD5
:1024C00002284FF00300F3D917E100BF20F001000C
:1024D000C6F89400FFF738FA054600BFD6F8940016
:1024E00080077FF5CAAEFFF72FFA401B0228F5D907
:1024F0007BE000BF3168002821F480313160316811
:1025000021F48021316000F08F80FFF71DFA05462D
:10251000306880033FF5AAAEFFF716FA401B642827
:10252000F6D962E020F480703060FFF70DFA0546BE
:10253000306840057FF59DAEFFF706FA401B022884
:102540004FF00300F4D9D8E03168022821F08071FF
:1025500031604FD1FFF7F8F9054600BF30688001C0
:1025600040F18E80FFF7F0F9401B02284FF0030086
:10257000F4D9C2E07068216920F0FE4040EA0160B1
:10258000706076E620F00100C6F89800FFF7DCF9ED
:10259000054600BFD6F8980080077FF576AEFFF7B6
:1025A000D3F9401B02284FF00300F3D9A5E000BF88
:1025B000D6F89010002821F00101C6F89010D6F846
:1025C000901021F00401C6F890103DD0FFF7BCF93F
:1025D000054641F2883700BFD6F89000800745D401
:1025E000FFF7B2F9401BB842F6D9032002B0BDE8AC
:1025F000F08100BFF0684FF6FF7120F00300F0603B
:10260000F068CFF6EE610840F060FFF79DF90446F0
:10261000306880017FF57DAEFFF796F9001B022838
:102620004FF00300F4D968E0FFF78EF9054600BFCC
:10263000306880037FF51AAEFFF786F9401B6428E7
:102640004FF00300F4D958E0FFF77EF9054641F258
:10265000883700BFD6F89000800707D5FFF774F9D8
:10266000401BB8424FF00300F4D946E0B8F1000F28
:102670007FF407AEB06D20F08050B06501E600BF7A
:10268000F06848F20C01C0F29F1104F1200700EA43
:10269000010C8ECF6FF00F00D4E90C5400EB021048
:1026A0000022CFF6E07241EA0C0102EB055208432A
:1026B0006FF314024FF07E4540EA032005EB0465FA
:1026C000104305F07E4540EAC7602843F06030685B
:1026D00040F080703060F06840F08070F060FFF78C
:1026E00033F90446306880013FF513AEFFF72CF94B
:1026F000001B02284FF00300F4D902B0BDE8F081BE
:10270000411E0020B0EB116F1CBF012070474EF23C
:102710001002CEF2000251604EF62351CEF20001BB
:10272000F0230B7007219060116070477047000024
:102730007047000070470000F0B590F83C20012A77
:1027400004BF0220F0BDD1E90232D1E900CE22F46B
:102750007C5223F470531A4348F2FF73CFF6F073A0
:1027600003EA0E0342EA030E0A692CF477234EEAC9
:10277000030C22F476224B6942EA0C021A430B6BDB
:1027800022F4742C23F470238A6943EA0C0343EA8D
:102790000243026843F2004EC4F2010E42F6004CBE
:1027A0007245C4F2010C01D0624503D1CC6923F01B
:1027B00080532343724501D0624517D101F12006B1
:1027C000002770CECFF6F04723F07C7307EA065659
:1027D000334324F000742343724543EA050301D0D8
:1027E000624503D1C96A23F000530B4300215364AF
:1027F00080F83C100846F0BD7047000070470000AC
:102800007047000070B590F83C20012A4FF002029A
:1028100047D080F83D20026843F2004C546893682A
:10282000C4F2010C42F6004E6245C4F2010E01D022
:10283000724503D14D6824F470042C434FF68F7514
:10284000CFF6FF550E682C4042F6FF35C4F2010565
:102850003443AA4254600FDCB2F1804F16D040F2EC
:102860000046C4F20006B24210D040F60006C4F2A0
:102870000006B2420AD00EE0724507D044F20006CC
:10288000C4F20106B24201D0624504D1896823F046
:102890008003194391600121002280F83D1080F8E7
:1028A0003C20104670BD000070470000002804BFA7
:1028B0000120704710B5044690F83D0028B900206B
:1028C00084F83C00204600F023F8022084F83D0004
:1028D0002068211D01F0D0F9012084F8480084F817
:1028E0003E0084F83F0084F8400084F8410084F8FA
:1028F000420084F8430084F8440084F8450084F8DA
:10290000460084F8470084F83D00002010BD000018
:1029100080B582B0006842F60041C4F201018842ED
:102920001CBF02B080BD41F26000C4F20200016829
:10293000002241F4006101600068002100F40060A1
:10294000019001981820FFF775F81820FFF762F83A
:10295000192000210022FFF76DF81920FFF75AF81F
:102960001A2000210022FFF765F81A2002B0BDE806
:102970008040FFF74FB8000080B590F83C20012A56
:102980004FF0020200F0A98080F83D20D0F800C08E
:102990008822DCF80830CFF6CE721A40CCF8082036
:1029A0000B686F2B10DD1F22C0F21002934237DC40
:1029B000B3F5005F46DA702B00F09280B3F5805FCC
:1029C00000F08480D6E000BF2F2B35DD4F2B3FDC9D
:1029D000302B6FD0402B40F0CD80D1F804E0C96897
:1029E000DCF82030DCF8202022F00102CCF8202096
:1029F000DCF8182022F0F00242EA011123F00A026A
:102A000042EA0E02CCF81810CCF82020DCF80810AE
:102A10004FF68872CFF6CF721140473154E000BFB5
:102A20003F21C0F210018B423ADC2021C0F210019C
:102A30008B423FD0302139E0E3B3102B3AD0202B2A
:102A400038D097E060D0B3F1101F33D092E000BFD0
:102A5000502B6DD0602B40F08D80D1F804E0C96818
:102A6000DCF8203023F01003CCF82030DCF81830EC
:102A7000DCF8202023F4704322F0A00243EA013165
:102A800042EA0E12CCF81810CCF82020DCF808101E
:102A90004FF68872CFF6CF721140673114E000BF55
:102AA0004021C0F210018B4204D07021C0F210010D
:102AB0008B425FD1DCF808104FF68872CFF6CF72E8
:102AC0001140194341F00701CCF808100022012100
:102AD00080F83D10002180F83C10104680BD00BFFA
:102AE000D1E901E3C968DCF8082043EA0E0322F4C7
:102AF0007F4243EA01211143CCF80810DCF80810AA
:102B000041F07701E0E700BFD1E901E3C968DCF8F3
:102B1000082043EA0E0322F47F4243EA01211143D5
:102B2000CCF80810DCF8081041F48041CCE700BF75
:102B3000D1F804E0C968DCF82030DCF8202022F06D
:102B40000102CCF82020DCF8182022F0F00242EA42
:102B5000011123F00A0242EA0E02CCF81810CCF858
:102B60002020DCF808104FF68872CFF6CF721140A3
:102B70005731A9E70122AAE77047000010B50168A4
:102B800004460869800744BFC8685FEA807061D462
:102B90000869400744BFC8685FEA407066D40869A6
:102BA000000744BFC8685FEA00706DD40869C006BA
:102BB00044BFC8685FEAC06072D40869C0071CBF20
:102BC000C8685FEAC07079D10869000644BFC86868
:102BD0005FEA00607AD40869C00544BFC8685FEA4C
:102BE000006000F17B800869400644BFC8685FEA66
:102BF000406000F17B800869800644BFC8685FEAD6
:102C0000806000F17B800869C00244BFC8685FEA49
:102C1000C02000F17B800869800244BFC8685FEA79
:102C2000802000F17B800869400244BFC8685FEAE9
:102C3000402000F17B800869000246BFC8685FEA57
:102C4000002010BD6FF4000220460A61BDE810406C
:102C5000FFF72ABE6FF00200086101202077886923
:102C600080076BD02046FFF787FF6DE06FF0040010
:102C7000086102202077886910F4407F68D02046E0
:102C8000FFF77AFF6AE000BF6FF0080008610420D8
:102C90002077C869800765D02046FFF76DFF67E0A1
:102CA0006FF01000086108202077C86910F4407F99
:102CB00062D02046FFF760FF64E000BF6FF00100C4
:102CC0000861204600F044FB21687DE76FF080003A
:102CD00008612046FFF72CFD21687CE76FF48070C7
:102CE00008612046FFF722FD21687CE76FF0400075
:102CF0000861204600F02EFB21687CE76FF0200081
:102D000008612046FFF716FD21687CE76FF480100C
:102D100008612046FFF772FD21687CE76FF4001020
:102D200008612046FFF768FD21687CE76FF48000AA
:102D300008612046FFF764FD21687CE7204600F02B
:102D400025F8204600F03AFA2168002020771FE796
:102D5000204600F01BF8204600F030FA21680020E1
:102D600020771CE7204600F011F8204600F026FAF4
:102D700021680020207719E7204600F007F8204658
:102D800000F01CFA21680020207716E77047000049
:102D90002DE9F04190F83C30012B04BF0220BDE842
:102DA000F0814FEAB202052A00F28481DFE812F0D6
:102DB00006005000A200F40046018A0103681A6A66
:102DC000A3F1804622F001021A621D6A1A465C686D
:102DD00052F818CF8F68A6F59636D1F800E025F0A6
:102DE00002054FEAB626072E45EA07050AD801274D
:102DF000B74017F0E50F1FBFCF6825F00C0527F08F
:102E000004073D43072E0BD8012707FA06F616F0F4
:102E1000E50F1FBF24F44074D1E9056734433C43F8
:102E20004FF68C76CFF6FE760CEA060747EA0E07D9
:102E30005C609F614F6809695F631D629F6947F02D
:102E400008079F619F6927F004079F6177E100BF32
:102E5000036843F200461A6AC4F2010622F0100227
:102E60001A621D6A1A465C6852F818EFB3428E68FF
:102E7000D1F800C025F0200545EA061505D042F638
:102E80000046C4F20106B34207D1CE686FF0400796
:102E900025F0C00507EA06163543A3F18046A6F5DE
:102EA00096364FEAB626072E0DD8012707FA06F602
:102EB00016F0E50F1FBF24F44064D1E9056744EA2A
:102EC000860444EA870448F6FF46CFF6FF660EEA1A
:102ED000060747EA0C275C609F614F6809699F639A
:102EE0001D629F6947F400679F619F6927F48067AF
:102EF0009F6123E1036843F200461A6AC4F20106A7
:102F000022F480721A621D6A1A465C6852F81CCF5D
:102F1000B3428E68D1F800E025F4007545EA062535
:102F200005D042F60046C4F20106B34207D1CE688E
:102F300040F2FF47360225F44065BE433543A3F116
:102F40008046A6F596364FEAB626072E0DD80127FD
:102F500007FA06F616F0E50F1FBF24F44054D1E936
:102F6000056744EA061444EA07144FF68C76CFF658
:102F7000FE760CEA060747EA0E075C60DF614F68E1
:102F80000969DF631D62DF6947F00807DF61DF69F8
:102F900027F00407DF61D2E0036843F200461A6AB3
:102FA000C4F2010622F480521A621D6A1A465C6855
:102FB00052F81CCFB3428E68D1F800E025F40055DA
:102FC00045EA063505D042F60046C4F20106B34292
:102FD00007D1CE6844F6FF77360325F44045BE435B
:102FE0003543A3F18046A6F596364FEAB626072E5E
:102FF0000DD8012707FA06F616F0E50F1FBF24F4D7
:103000004044D1E9056744EA861444EA871448F647
:10301000FF46CFF6FF660CEA060747EA0E275C601C
:10302000DF614F6809691F641D62DF6947F400674B
:10303000DF61DF6927F48067DF617FE003681A6A78
:10304000A3F1804722F480321A621A46A7F5963718
:10305000D3F820805D6852F850EFD1F800C08E6838
:103060004FEAB727072F09D80124BC4014F0E50F19
:103070001EBF4C6925F4803545EA042528F4003448
:1030800044EA06444FF68C76CFF6FE7603360EEA17
:10309000060747EA0C075D601F654F6809699F6472
:1030A0001C621F6D47F008071F651F6D27F004079E
:1030B0001F6544E00121002280F83C200846BDE85D
:1030C000F08100BF03681A6AA3F1804722F48012DE
:1030D0001A621A46A7F59637D3F820805D6852F831
:1030E00050EFD1F800C08E684FEAB727072F09D8F4
:1030F0000124BC4014F0E50F1EBF4C6925F4802567
:1031000045EA842528F4001444EA065448F6FF46AC
:10311000CFF6FF6606F540760EEA060747EA0C276B
:103120005D601F654F680969DF641C621F6D47F4AD
:1031300000671F651F6D27F480671F65090213680C
:10314000194311600021002280F83C200846BDE8A8
:10315000F0810000002804BF0120704710B504462C
:1031600090F83D0028B9002084F83C00204600F08B
:1031700023F8022084F83D002068211D00F07CFD2A
:10318000012084F8480084F83E0084F83F0084F869
:10319000400084F8410084F8420084F8430084F839
:1031A000440084F8450084F8460084F8470084F819
:1031B0003D00002010BD0000704700007047000077
:1031C00061B10A1F4FEAB202032A11D8DFE802F008
:1031D0000214181C00F13F0318E000BF90F83E20D5
:1031E000012A1CBF01207047022280F83E202CE0FB
:1031F00000F143030AE000BF00F1400306E000BF16
:1032000000F1410302E000BF00F142031B78012BF3
:103210001CBF01207047032A08D8DFE802F0030B27
:103220000F1300BF022280F83F200EE0022280F838
:1032300043200AE0022280F8402006E0022280F8C3
:10324000412002E0022280F84220026801F01F01C2
:103250000120136A00FA01F18B431362136A0B43D6
:10326000A2F18041A1F596314FEAB12106291362FE
:1032700044D8884010F0650F40D0506C42F6FF31C2
:10328000C4F2010140F400408A42506410DCB2F103
:10329000804F1FD040F20040C4F20000824219D09B
:1032A00040F60000C4F20000824213D04AE000BFA2
:1032B00042F60040C4F2010082420BD044F200000A
:1032C000C4F20100824205D043F20040C4F2010082
:1032D000824237D190680721C0F2010101400629DE
:1032E0004FF0000008D0B1F5803F08BF704710686C
:1032F00040F0010010600020704700BF42F6FF3030
:10330000C4F201008242C2DD43F6FF70C4F2010044
:10331000824207DC42F60040C4F201008242D3D16F
:10332000D8E700BF44F20000C4F201008242D1D0CD
:1033300044F60000C4F20100824202BF506C40F427
:1033400000405064106840F0010010600020704799
:10335000704700007047000090F88010012904BFFA
:10336000022070472421C0F8841002681168136895
:1033700023F00103136021F0005300214166136024
:103380002022C0F8842080F8801008467047000092
:10339000B0B590F88020012A04BF0220B0BD2422DD
:1033A000C0F884200268D0F864E0D2F800C0136846
:1033B000BEF1000F23F001031360936823F06063F4
:1033C00041EA0301916019D09368916845F20C2E8F
:1033D000490FC0F6000E45F214251EF80140C0F654
:1033E0000005695CC3F34263E400B4FBF1F11EF82D
:1033F0000340EB5CE500B5FBF3F301E001210123A1
:10340000A0F86A102021A0F86830C2F800C0C0F807
:103410008410002180F880100846B0BDB0B590F847
:103420008020012A04BF0220B0BD2422C0F88420DD
:103430000268D0F864E0D2F800C01368BEF1000F53
:1034400023F001031360936823F0604341EA030112
:10345000916019D09368916845F20C2E490FC0F61F
:10346000000E45F214251EF80140C0F60005695C07
:10347000C3F34263E400B4FBF1F11EF80340EB5CDC
:10348000E500B5FBF3F301E001210123A0F86A1088
:103490002021A0F86830C2F800C0C0F884100021D4
:1034A00080F880100846B0BDB0B582B0B0B1044617
:1034B000D0F8840028B9002084F88000204600F06D
:1034C00059F82420C4F884002068016821F0010123
:1034D0000160204600F0CAFC012803D1012002B09F
:1034E000B0BD00BFA06A10B1204600F04BFC2068C0
:1034F000416821F490414160816821F02A01816096
:10350000016841F0010101600020C4F88C00FEF761
:103510001BFA216805460A6812070CD56FF07E4C2D
:1035200020464FF4001100222B46CDF800C000F0D9
:10353000F5FD78B92168086840070FD56FF07E4C1B
:1035400020464FF4800100222B46CDF800C000F049
:10355000E5FD18B1032002B0B0BD00BF2020C4F8C3
:103560008400C4F888000020E06684F8800002B07F
:10357000B0BD0000B0B598B0044602A800250430E4
:1035800040211795CDE91555CDE91355FCF778FE87
:10359000206848F20001C4F20001884202D018B04D
:1035A000B0BD00BF2020029002A80795FEF726FBC1
:1035B000002818BFFDF7E4F941F24C00C4F2020004
:1035C000016941F001010161016901F0010101910D
:1035D0000199016841F0010101600068022100F0D9
:1035E0000100019001980C20149100211390CDE965
:1035F0001511179013A94FF09040FEF7B1F818B0CD
:10360000B0BD00002DE9F04381B00446D0F884003D
:1036100020280BD10E4600294FF001005CD0174640
:10362000002A59D094F88000012803D1022001B06B
:10363000BDE8F083012084F880004FF000092120CC
:103640001D46C4F88C90C4F88400FEF77DF9A4F8F8
:103650005470A4F85670A1680746B1F5805F07D191
:10366000206900281CBF30464E46B046064601E0A1
:103670004FF0000884F8809009E000BF16F8010BB5
:1036800021688862B4F856000138A4F85600B4F8EE
:10369000560088B12046802100223B46009500F06C
:1036A0003DFD88B9002EE9D138F8020B21686FF38F
:1036B0005F2088620026E5E72046402100223B4645
:1036C000009500F02BFD18B1032001B0BDE8F08398
:1036D0002020C4F88400002001B0BDE8F083000081
:1036E000FEE7000081B20222880982EA9131DFE818
:1036F00001F00331132100BF45F21C21C0B2C0F616
:10370000000131F8102080F0FF0031F81010504215
:103710004942C1EA0040704745F21C22C1B2C0F6DE
:10372000000232F8110081F0FF0132F81110C1EAF5
:103730000040704745F21C22C0B2C0F6000280F083
:10374000FF0132F8103032F811005942C1EA00404E
:10375000704700BFC0B245F21C2280F0FF01C0F6E6
:10376000000232F8113032F810105842C1EA00401D
:103770007047000010B58CB040F24800C2F2000063
:103780004FF0A04100244FF4403280E816004FF47F
:1037900080718183032101234FF0040C01624FF4F7
:1037A000A4614FF480620B94CDE90944CDE907444C
:1037B000CDE90544CDE90344CDE90144C0E9034422
:1037C000C0E9053C80F82440C0E90B1280F838308D
:1037D000C46380F84040FDF739FC002818BFFDF7AE
:1037E000CFF840F24800C2F2000009A90994FDF7A1
:1037F000D7F8002818BFFDF7C3F80220C0F2304008
:10380000019006207F210290002004910421039062
:10381000CDE9051040F24800C2F2000001A9FDF711
:103820001FF9002818BFFDF7ABF841F20000C3F202
:10383000602001900C20029040F24800C2F200008B
:1038400001A9FDF70DF9002818BFFDF799F812201E
:10385000029040F24800C2F2000001A9FDF700F911
:10386000002818BFFDF78CF80CB010BD80B582B0F1
:1038700041F24800C4F202000168002241F0040154
:103880000160016801F0040101910199016841F0B2
:10389000010101600068002100F001000090009823
:1038A0000B20FEF7C7F80B2002B0BDE88040FEF702
:1038B000B1B800002DE9F04186B0002641F24C007D
:1038C000CDE90466C4F202000168002241F004015F
:1038D00001600168202701F004010091009901684E
:1038E00041F020010160016801F020010091009980
:1038F000016841F001010160016801F001010091DE
:103900000099016841F0020101600068202100F087
:103910000200009000984FF09040FEF70FF840F240
:103920000044C4F6000420464FF4604100224FF4E6
:103930006048FEF703F84FF4005001ADCDE90106F1
:1039400004F5806029460396FDF70AFF01970127D9
:103950004FF090402946CDE902760496FDF700FF2E
:1039600020462946CDE90187CDE90366FDF7F8FE3B
:1039700006B0BDE8F081000080B540F2141048F2B6
:103980000001C2F20000C4F2000100234FF00C0C51
:103990004FF4E13280E80E00C0E90333C0E905C30B
:1039A000C0E908338362FFF77FFD002818BFFCF7EA
:1039B000E7FF40F21410C2F200000021FFF72EFDD5
:1039C000002818BFFCF7DCFF40F21410C2F2000020
:1039D0000021FFF7DDFC002818BFFCF7D1FF40F203
:1039E0001410C2F20000FFF7B7FC002808BF80BD2A
:1039F000BDE88040FCF7C4BF70B5A0B042F60046F9
:103A0000002468463421C4F201061A94CDE9184412
:103A1000CDE91544CDE91344CDE91144CDE90F4476
:103A2000CDE90D44FCF72CFC40F2A410C2F20000DA
:103A3000202100F1080C41F29A024FF48073012515
:103A4000C0E900648CE82E008461FEF72FFF002897
:103A500018BFFCF795FF4FF48050179040F2A41068
:103A6000C2F2000017A9FEF787FF002818BFFCF775
:103A700087FF40F2A410C2F20000FFF76BFB0028A2
:103A800018BFFCF77DFF7020149040F2A4100024B2
:103A9000C2F2000014A9CDE91544FEF7B3FE0028D8
:103AA00018BFFCF76DFF60200D9040F64D00CDE98A
:103AB0000E0440F2A410C2F200000DA90022CDE9CC
:103AC0001044CDE91244FFF763F9002818BFFCF752
:103AD00057FF40F2A410C2F200000DA90422FFF724
:103AE00057F9002818BFFCF74BFF40F2A410C2F2B0
:103AF00000000DA90822FFF74BF9002818BFFCF7BA
:103B00003FFF70200D9041F299000E9040F2A410FA
:103B1000C2F200000DA90C22FFF73AF9002818BFE5
:103B2000FCF72EFF4FF48051002004914FF4005118
:103B300040F2A414CDE905104FF00071C2F2000468
:103B4000CDE90200CDE90000CDE90700CDE909107B
:103B5000CDE90B0069462046FEF7EEFD002818BFB0
:103B6000FCF70EFF2068B04202D020B070BD00BF4D
:103B700041F24C00C4F20200016841F00101016011
:103B800000681BA900F001001B901B984FF4E06037
:103B90001B9002201C900020CDE91D0006201F90E4
:103BA0004FF09040FDF7DCFD20B070BDFEE7000057
:103BB000FEE700007047000080B540F22000C2F22E
:103BC000000090ED040A9FED191A9FED1A2A30EEBD
:103BD000010A9FED171AB4EE410AF1EE10FAB8BFD0
:103BE000B0EE402A80ED042A00F0A4FB40F2100061
:103BF000C2F2000090ED000A90ED021A90ED012A49
:103C000040F2A410C2F20000BDEEC11A006811EE2D
:103C1000101ABDEEC21A416311EE101ABDEEC00AB1
:103C2000816310EE101AC16380BD00BF00004843DD
:103C3000000080470000000070470000FDF78ABECA
:103C40004EF68850CEF20000016841F47001016028
:103C50007047000040F2A410C2F20000FEF78EBFD1
:103C600040F2A410C2F20000FEF788BF40F2A41098
:103C7000C2F20000FEF782BF80B540F2FF7C02680E
:103C8000C4F2000C604521DD40F60003C4F20003DD
:103C9000984224D043F20043C4F2010398421ED05C
:103CA00042F60043C4F20103984218D043F2FF33B6
:103CB000C4F2010398421CDC604529DCB0F1804F5E
:103CC0003CD040F20043C4F2000335E0B0F1804F35
:103CD00005D040F20043C4F200039842E6D14B689D
:103CE00022F070021A4343F2FF33C4F201039842F8
:103CF000E2DD44F2FF33C4F20103984212DC43F2E6
:103D00000043C4F20103984218D044F2000311E0CA
:103D100040F60003C4F2000398420FD042F600437D
:103D200008E000BF44F60003C4F20103984205D046
:103D300044F20043C4F20103984203D1CB6822F459
:103D400040721A434B6922F0800E8A6843EA0E03E0
:103D5000D1F800C00360C262A0F18042A2F59632A1
:103D60004FEAB222072AC0F828C007D8012303FA75
:103D700002F212F0E50F1CBF0969016301214161E4
:103D800080BD000080B5816ACA070DD18A0716D4AC
:103D90004A071FD40A0728D4CA0631D48A063AD45F
:103DA0004A0658D542E000BF0268D0F82CC05368DC
:103DB00023F4003343EA0C0353608A07E8D5026812
:103DC000D0F830C0536823F4803343EA0C035360C7
:103DD0004A07DFD50268D0F834C0536823F4802343
:103DE00043EA0C0353600A07D6D50268D0F838C0FE
:103DF000536823F4004343EA0C035360CA06CDD54D
:103E00000268D0F83CC0936823F4805343EA0C0363
:103E100093608A06C4D50268D0F840C0936823F442
:103E2000005343EA0C0393604A0614D50268D0F8A5
:103E300044C05368BCF5801F23F4801343EA0C038D
:103E4000536008D1D2F804C0D0F848E02CF4C00385
:103E500043EA0E035360090658BF80BD0168C06C79
:103E60004A6822F400221043486080BD70B50446C1
:103E70002269D4E9021300680A436169E6691143C3
:103E8000026846F6F315CCF6FF7531432A4011431C
:103E90000160416848F2000C21F44051194341602F
:103EA000A269C4F2000C60451CBF216A0A43816804
:103EB0004FF2FF43C1F2FF13194011438160C16A01
:103EC000D4F824E021F00F0141EA0E01C16244F66A
:103ED000FF31C4F2000188424FF0100314DD44F6B4
:103EE0000041C4F20001884222D0604528D043F648
:103EF0000001C4F20101884238D141F28801C4F2C4
:103F000002010B6881A22DE044F20041C4F20001DD
:103F100088421DD044F60001C4F20001884225D138
:103F200041F28801C4F2020109680B0916E000BFE2
:103F300041F28801C4F2020109688B090EE000BF5A
:103F400041F28801C4F2020109688B0A06E000BF51
:103F500041F28801C4F2020109688B0845F2FC12A3
:103F6000C0F6000203F0030152F82130604542F22E
:103F70000040C0F2F40015D0B6F5004F24D1082B54
:103F80004FF0010100F2B980DFE803F0066270B77C
:103F900068B7B7B76E0000BFFEF7F0F8002840F032
:103FA0005A805FE0082B4FF0010100F2A680DFE8A5
:103FB00003F005A425A41DA4A4A42300FEF7DEF8A5
:103FC000C0B1D4F824E019E0082B4FF0010100F251
:103FD0009480DFE803F0056B7992719292927700FA
:103FE000FEF7CCF8002864D16AE000BFFEF7F2F8D3
:103FF0000028E6D1002180E04FF4004045F2E411B2
:10400000C0F6000131F81E106268B0FBF1F002EB5F
:10401000420188424FF001016FD3130398426CD8DC
:10402000010E000210EB520041F100010023FCF7E9
:10403000EFF84FF6FF42A0F54071C0F20F02914237
:1040400004D82168C860002157E000BF012154E076
:10405000FEF7AAF830B1D4F824E007E0FEF7BAF88A
:104060000028F8D1002148E04FF4004045F2E41167
:10407000C0F6000131F81E106268B0FBF1F0510883
:1040800001EB4000B0FBF2F04FF6EF72A0F110012F
:10409000914209D84FF6F0710140C0F34200226806
:1040A0000844D060002128E0012126E0FEF77CF8DA
:1040B00030B1D4F824E007E0FEF78CF80028F8D1FE
:1040C00000211AE04FF4004045F2E411C0F600016F
:1040D00031F81E104FF6EF72B0FBF1F0616800EBA3
:1040E0005100B0FBF1F0A0F11001914204D8216819
:1040F000C860002101E000BF01214FF00110A0665F
:10410000002208462267626770BD00BF0100000000
:104110000400000002000000080000002DE9F0414A
:10412000044600681546C2690E461140891BB1FA63
:1041300081F14909A94240F09C80DDF81880B8F16E
:10414000000F27D018F101017CD100BFC1693140B7
:10415000891BB1FA81F14909A94240F08A80C169FD
:104160003140891BB1FA81F14909A94240F08180AF
:10417000C1693140891BB1FA81F14909A94278D15D
:10418000C1693140891BB1FA81F14909A942DDD0E9
:104190006FE000BFFDF7D8FB206850E8000F2168F2
:1041A00020F4D07041E80002BAB3206850E8000F54
:1041B000216820F4D07041E8000272B3206850E812
:1041C000000F216820F4D07041E800022AB3206873
:1041D00050E8000F216820F4D07041E80002002A66
:1041E000DAD11AE0206850E8020F216820F00100BF
:1041F00041E80202DAB1206850E8020F216820F09D
:10420000010041E8020292B1206850E8020F2168E3
:1042100020F0010041E802024AB1206850E8020F94
:10422000216820F0010041E80202002ADAD12020B2
:10423000C4F88400C4F88800002084F880000320BB
:10424000BDE8F0811F4600BFFDF77EFBC01B404567
:10425000A2D820680168490744BFC1695FEA0151DB
:104260000AD4C0693040801BB0FA80F04009A842EF
:10427000EAD00020BDE8F0814FF40061016200BF88
:1042800050E8000F216820F4D07041E80002C2B36A
:10429000206850E8000F216820F4D07041E8000247
:1042A0007AB3206850E8000F216820F4D07041E80C
:1042B000000232B3206850E8000F216820F4D0706B
:1042C00041E80002EAB12068DAE700BF206850E860
:1042D000020F216820F0010041E80202DAB12068F3
:1042E00050E8020F216820F0010041E8020292B17B
:1042F000206850E8020F216820F0010041E8020226
:104300004AB1206850E8020F216820F0010041E81E
:104310000202002ADAD12020C4F88400C4F8880000
:10432000C4F88C00002084F880000320BDE8F081F0
:10433000FEE7000070B52DED0A8B40F21006C2F2C8
:10434000000696ED080ABDEEC00A10EE100AFFF74F
:10435000C9F905140446F3A0294600F0ABFA00EEB3
:10436000105A9FEDF21AB8EEC00A20B220EE018A70
:1043700000EE100AB8EEC00A18EE100A20EE019AFC
:10438000FBF789FF0246EAA00B4600F093FA96ED90
:10439000040B96ED06AB51EC100BFBF78FFF0BEE09
:1043A000100A51EC1A0B29EE0BCAFBF787FF00EE3F
:1043B000100A28EE001A9FEDE03A3CEE411A28EE72
:1043C0000B2A29EE000A32EE002A21EE030A30EE13
:1043D000424AB6EE000AB5EE402A24EE004AF1EE5B
:1043E00010FAB5EE404A9FEDD54A4FF0000021EE9D
:1043F000045A35EE425AC6E90000B060C8BF012039
:1044000025EE005AF1EE10FAC8BF0230B5EE405A60
:10441000F1EE10FAC8BF0430411E042900F23A81BF
:10442000DFE811F0060042007E00BC00FA0000BF89
:1044300096ED093A96ED0A4A9FEDC26A84EE033A78
:10444000B7EE085A21EE051A22EE062A32EE415A3C
:1044500031EE021A25EE035A21EE031A31EE052A37
:1044600085EE023AB4EE442AF1EE10FA31EE036A18
:1044700081EE066AC4BFB0EE461AB0EE435A35EE7E
:10448000012A34EE422AB5EE003A22EE032A25EE46
:10449000003A33EE023A21EE000A86ED003A86ED4C
:1044A000012A30EE031A32E196ED093A96ED0A5AE6
:1044B00022EE044A85EE036A24EE054A84EE033AAE
:1044C0009FEDA07AB7EE084A21EE041A22EE072AE1
:1044D00031EE021A21EE061A33EE012A81EE024A6B
:1044E000B4EE452AF1EE10FA33EE046A83EE066A62
:1044F000C4BFB0EE463AB0EE441A31EE032A35EEB0
:10450000422AB5EE004A22EE042A21EE001A31EECC
:10451000021A23EE000A30EE010A86ED002AF4E0CA
:1045200096ED094A96ED0A5A22EE033A85EE046AA0
:1045300023EE053A83EE043A9FED817AB7EE084AFE
:1045400021EE041A22EE072A31EE021A21EE061A93
:1045500033EE012A81EE024AB4EE452AF1EE10FA5A
:1045600033EE046A83EE066AC4BFB0EE463AB0EE9C
:10457000441A31EE032A35EE422AB5EE004A22EE05
:10458000042A21EE001A31EE021A23EE000A86ED0B
:10459000002A86ED011A30EE011AB8E096ED093ACC
:1045A00096ED0A5A22EE044A24EE054A85EE036A85
:1045B00084EE033A9FED637ABFEE084A21EE041AB7
:1045C00022EE072A32EE011A21EE062A32EE031AF3
:1045D00083EE014AB4EE451AF1EE10FA32EE046AA7
:1045E00082EE066AC4BFB0EE462AB0EE443A33EE1D
:1045F000021A35EE411AB5EE004A21EE041A23EEF6
:10460000003A33EE013A22EE000A30EE030A86ED5C
:10461000000A86ED013A7AE096ED0A4A96ED095ACB
:1046200022EE033A23EE043A84EE056A83EE053A5D
:104630009FED437ABFEE085A21EE051A22EE072AB3
:1046400031EE021A26EE012A32EE031A83EE015AE7
:10465000B4EE441AF1EE10FA32EE056A82EE066A02
:10466000C4BFB0EE462AB0EE453A33EE021A34EE3D
:10467000411AB5EE004A21EE044A23EE001A31EE4B
:10468000041A22EE000A30EE010A86ED000A86EDD9
:10469000014A3CE096ED094A96ED0A3A9FED296AF7
:1046A00083EE045AB7EE084A21EE041A22EE062AD7
:1046B00031EE024A31EE421A24EE454A21EE052A35
:1046C00032EE041A84EE015AB4EE431AF1EE10FAF7
:1046D00032EE056A82EE066AC4BFB0EE462AB0EE3C
:1046E000454A062815D134EE021A33EE411AB5EECA
:1046F000003A21EE031A24EE003A33EE013A22EE9C
:10470000000A30EE030A86ED003A86ED010A86EDD6
:10471000021A00EE100AB8EEC00A86ED030ABDECDC
:104720000A8B70BD25640D0A0000000000000038EF
:1047300025660D0A00000000D7B3DD3FD7B3DDBF0B
:10474000D7B35DBFD7B35D3F80B582B0019040F273
:104750001410C2F2000001A9012240F6FF73FEF717
:1047600051FF019802B080BD94B0FDF701F940F20D
:1047700020000021C2F200000024C4F21401C0E9AC
:1047800002414DF200010022C4F28451C4F24012F1
:10479000C0E90044C0E905210020CDE90B44CDE982
:1047A0000944CDE907440594CDE90344CDE901442A
:1047B000FDF77CF94FF48071099140210A910421A1
:1047C00002200F9155210690CDE90D00CDE9101082
:1047D000CDE9120006A8FDF73BFD28B1EFF31080EC
:1047E00072B600BFFEE700BF0F2001900320CDE9A5
:1047F00002044FF48060CDE9040401A80421FDF710
:1048000033FB28B1EFF3108072B600BFFEE700BFA4
:10481000FFF750F8FFF72AF8FEF7ACFFFFF7ACF808
:10482000FFF7EAF821A000F0BFFC40F2480040F298
:104830004001C2F20000C2F200010322FCF7B0FD09
:1048400040F2B40043F6B93140F2A414C2F20000C1
:10485000C0F60001C2F20004C16220460021FEF74A
:10486000AFFC20460421FEF7ABFC20460821FEF7F2
:10487000A7FC20460C21FEF7A3FC40F20044C4F63E
:10488000000420464FF400510122FDF757F820465E
:104890004FF480410122FDF751F820464FF40041CA
:1048A0000122FDF74BF800BFFEE700BF746573748B
:1048B0000D0000000FB4054B10B503A9044A02987F
:1048C00000F0DAF810BC5DF814FB0000494700085E
:1048D0000000002002E008C8121F08C1002AFAD117
:1048E00070477047002001E001C1121F002AFBD170
:1048F000704700002DE9FF5F82B00021DDE9043040
:10490000020DDDF840B0034318D044F61050A2F277
:10491000FF3242431514119801281FD0A5EB0B005C
:10492000401C5FEA000A4FF000064E4FDFF8389156
:10493000B046504615D5CAF1000413E01198012481
:104940004AA3012801D16FEA0B010298119AC0E92C
:104950000031C0E9024206B0BDE8F09FCBF1000093
:10496000DFE704460021404A491842EB0450CDE9F4
:10497000001012E0E00707D032463B464046494669
:10498000FBF7CBFD8046894632463B46104619462A
:10499000FBF7C3FD06460F466410002CEAD1DDE9A3
:1049A0000401DDE90023BAF1000F06DAFBF7B5FDDB
:1049B00042464B46FBF7B1FD05E0FBF720FE4246C1
:1049C0004B46FBF71CFE04460E460022284BFBF725
:1049D0009DFE03D84FF0FF30014607E00022254B33
:1049E00020463146FBF7F2FCFBF778FE102409E085
:1049F000002C0ADB0A220023FBF70AFC039B30325F
:104A00001A55641E50EA0102F2D1641C039AC4F1E3
:104A100011031444119A012A03D0012208430DD135
:104A20000AE0084304D000204FF0110B119072E708
:104A3000A3EB0B056D1E0DE05B4504DD4FF000029E
:104A400005F1010504E003DA4FF00002A5F10105CC
:104A5000002AECD002981199C0E90231C0E9004562
:104A600079E70000000014400000F03F3000000033
:104A70000000F0430000E03F2DE9FF4F95B09B465A
:104A80008946064600250FE2252877D100242746CF
:104A9000F84A0121059400E0044316F8013F203B49
:104AA00001FA03F01042F7D130782A2811D06FF0C4
:104AB0002F033078A0F13002092A16D8059A44F065
:104AC000020402EB820203EB42021044761C0590C2
:104AD000EFE759F8042B0592002A03DA504244F418
:104AE0000054059044F00204761C30782E2816D12C
:104AF00016F8010F44F004042A280DD06FF02F029D
:104B00003078A0F13003092B09D807EB870302EBBB
:104B10004303C718761CF3E759F8047B761C3078FA
:104B20006C280FD006DC4C2817D068280DD06A28D6
:104B300014D104E0742810D07A280FD10DE044F489
:104B400000140AE044F4801401E044F44014727844
:104B5000824202D104F58014761C761C30786628D7
:104B60000BD013DC582877D009DC002875D04528F5
:104B7000F6D04628F4D047281AD19DE118E06328E2
:104B800035D0642879D0652812D195E1702873D08A
:104B900008DC6728F1D069286FD06E280DD06F2807
:104BA00006D1B5E073282CD0752875D0782874D03C
:104BB0005A46179990476D1C75E1C4F302500228BC
:104BC00009D003280DD0D9F8001004280DD00D60AD
:104BD00009F1040967E1D9F80010EA17C1E90052A8
:104BE000F6E7D9F800100D80F2E70D70F0E719F83C
:104BF000041B8DF8001000208DF80100EA4601200A
:104C000003E059F804AB4FF0FF3061074FF00001AB
:104C100002D40DE008F101018846B9420FDA80455F
:104C2000F8DB1AF808100029F4D108E008F10101B6
:104C300088468142FADB1AF808100029F6D1059857
:104C40005B46A0EB080721463846179A00F094FA15
:104C5000284400EB080507E04DE029E10DE01AF8D3
:104C6000010B5A4617999047B8F10108F7D25B46F5
:104C700021463846179A13E142E00A220092C4F313
:104C800002524FF0000A022A08D059F804CB032A36
:104C90004FEAEC710AD00DE029E02AE009F10701A2
:104CA00021F00702F2E802C1914609E00FFA8CFCFC
:104CB0004FEAEC71042A03D14FFA8CFC4FEAEC71F5
:104CC000002907DA0A460021DCF1000C61EB020141
:104CD0002D2202E0220504D52B228DF8042001228A
:104CE00003E0E20701D02022F7E7904659E00A21CD
:104CF00002E010220DE010214FF0000A00910BE0BD
:104D000010224FF0000A44F004040827009203E048
:104D100008224FF0000A0092C4F30252022A05D082
:104D200059F804CB0021032A08D009E009F1070152
:104D300021F00702F2E802C1914605E01FFA8CFC5F
:104D4000042A01D10CF0FF0C4FF00008220728D5EF
:104D5000702806D0009B83F0100353EA0A0305D0A5
:104D60000EE040228DF80420012208E05CEA0102F6
:104D700006D030228DF804208DF8050002229046DE
:104D8000009B83F0080353EA0A030AD15CEA01029C
:104D900001D1620705D530228DF804204FF00108BB
:104DA0007F1E582804D034A003900EA802900DE076
:104DB00036A0F9E753466046009AFBF729FA844685
:104DC0000398825C0298401E029002705CEA010027
:104DD000F0D1029806A9081A00F1200A600702D54E
:104DE00024F4803400E00127574502DDA7EB0A00D8
:104DF00000E0002000EB0A01009005984144401AB1
:104E00000590E00306D45B462146179A059800F00A
:104E1000B3F90544002706E001A85A46C05D17997A
:104E200090476D1C7F1C4745F6DBE0030CD55B46C5
:104E30002146179A059800F09FF9054404E03020B8
:104E40005A46179990476D1C0099481E00900029FA
:104E5000F5DC08E0029802995A460078491C029154
:104E6000179990476D1CBAF10001AAF1010AF1DC13
:104E700065E100000928010030313233343536371E
:104E80003839616263646566000000003031323396
:104E90003435363738394142434445460000000036
:104EA00000F058F90544761C307800287FF4ECAD0A
:104EB00019B02846BDE8F08F620700D4062709F133
:104EC000070222F0070CFCE80223E14603F0004849
:104ED0005FEA080C02D00FF2702C0DE05FEA045C70
:104EE00002D50FF2682C07E05FEAC47C02D00FF213
:104EF000602C01E0AFF2700C4FF0FF3823F000435C
:104F0000CDF850C065280CD006DC452809D04628CD
:104F10001DD047283DD13DE0662818D067287ED1B6
:104F200038E00021112F01DB112000E0781CCDE9D1
:104F3000000106A90EA8FFF7DDFCDDE90F010E9ABE
:104F400003910021009207F1010A04914DE04FF016
:104F500000400097CDE9011006A90EA8FFF7CAFC92
:104F6000DDE90F0203920E9B11990022DDF80CA0DF
:104F70000093049211B9791C00EB010AB7EB0A0007
:104F800004D4C0F1FF3007F1010A0490AAEB070036
:104F9000019044E0012F00DA01270021112F01DDEB
:104FA000112000E03846CDE9000106A90EA8FFF760
:104FB000A1FCDDE90F010E9A0391002104910092FA
:104FC000BA4621070CD40399514500DA8A46BAF152
:104FD000010F05DD009AAAF10101515C302908D0CA
:104FE000B84202DA10F1040F06DA0121CDE901100E
:104FF00015E0AAF10101E9E7002805DC0499014464
:105000000491AAEB000102E0411C514500DD8A46F3
:105010000499401A401C01904FF000400290200774
:1050200004D40198504501DBCDF8048000208DF8B0
:105030004F0002980DF14F07B0F1004F25D02B2003
:105040000E9002984FF0020800280CDA40420290BD
:105050002D200E9007E00A210298FBF74BF9303122
:10506000029007F8011DB8F10001A8F10108F2DC77
:1050700002980028EFD1791E0E980870307800F061
:10508000200040F0450007F8020D12A8C01B00F1F7
:1050900007081498007800B1012000EB0A0101987C
:1050A00001EBE07105984144401A401E0590E00371
:1050B00006D45B462146179A059800F05DF8054432
:1050C0001498007818B15A46179990476D1CE00360
:1050D00024D55B462146179A059800F04DF8054403
:1050E0001CE00498002807DBDDE90301884203DDAA
:1050F0000098405C179901E0179930205A46904774
:10510000049805F10105401C04900198401E01908F
:1051100004D12E205A46179990476D1CBAF1000110
:10512000AAF1010ADDDC05E017F8010B5A461799D0
:1051300090476D1CB8F10001A8F10108F4DC5B4652
:105140002146179A0598ABE62D0000002B000000C1
:10515000200000002DE9F041044600251E461746B8
:10516000880404D405E039462020B0476D1C641E35
:10517000F9D52846BDE8F0812DE9F0410446002527
:105180001E469046C80301D5302700E0202788043A
:1051900004D505E041463846B0476D1C641EF9D57C
:1051A0002846BDE8F081000010B5044601E0FFF795
:1051B000CBFA14F8010B04490028F8D1BDE81040DF
:1051C0000A20FFF7C1BA0000000000200000000024
:1051D00000000000010203040607080900000000A7
:1051E00001020304010002000400060008000A0096
:1051F0000C001000200040008000000100000000B2
:10520000040000000200000008000000010101038A
:105210000701000008040204080101010000C900A0
:1052200092015B022403ED03B6047F0548061107D3
:10523000D907A2086A09330AFB0AC40B8C0C540D67
:105240001C0EE30EAB0F72103A110112C8128F132D
:1052500055141C15E215A8166E173318F918BE1947
:10526000821A471B0B1CCF1C931D571E1A1FDD1FD4
:105270009F2061212322E522A62367242825E825F3
:10528000A82667272628E528A329612A1F2BDC2BBF
:10529000992C552D112ECC2E872F4130FB30B53156
:1052A0006E322633DF3396344D350436BA366F37D7
:1052B0002438D9388C39403AF23AA53B563C073D60
:1052C000B83D683E173FC53F73402141CE417A4209
:1052D0002543D0437A442445CD4575461C47C347F2
:1052E00069480F49B449584AFB4A9D4B3F4CE04C32
:1052F000814D204EBF4E5D4FFB4F97503351CE51E5
:10530000685202539B533254C9546055F5558A561E
:105310001D57B0574258D3586459F359825A0F5BFE
:105320009C5B285CB35C3E5DC75D4F5ED75E5D5F96
:10533000E35F6860EB606E61F0617162F1627063FF
:10534000EE636C64E8646365DD655666CF66466748
:10535000BC673268A66819698B69FD696D6ADC6A89
:105360004A6BB76B236C8E6CF86C616DC96D306ED7
:10537000966EFB6E5E6FC16F22708370E27040713B
:105380009D71F9715472AE7207735E73B5730A74CE
:105390005F74B27404755575A575F37541768D7695
:1053A000D87622776B77B377FA773F788478C778A7
:1053B00009794A798979C879057A417A7C7AB67A05
:1053C000EE7A267B5C7B917BC57BF87B297C597CC4
:1053D000887CB67CE37C0E7D397D627D897DB07DE5
:1053E000D57DFA7D1D7E3E7E5F7E7E7E9C7EB97E73
:1053F000D57EEF7E097F217F377F4D7F617F747F70
:10540000867F977FA67FB47FC17FCD7FD87FE17FE6
:10541000E97FF07FF57FF97FFD7FFE7F4054000834
:105420000000002010000000D4480008505400087C
:1054300010000020E8050000E4480008000000001B
:105440000000000010000000010000000024F40033
:04000005080001D915
:00000001FF
